{
  "contractName": "BadgeDefinitionFactory",
  "abi": [
    {
      "inputs": [],
      "stateMutability": "nonpayable",
      "type": "constructor"
    },
    {
      "anonymous": false,
      "inputs": [
        {
          "indexed": true,
          "internalType": "address",
          "name": "owner",
          "type": "address"
        },
        {
          "indexed": true,
          "internalType": "address",
          "name": "approved",
          "type": "address"
        },
        {
          "indexed": true,
          "internalType": "uint256",
          "name": "tokenId",
          "type": "uint256"
        }
      ],
      "name": "Approval",
      "type": "event"
    },
    {
      "anonymous": false,
      "inputs": [
        {
          "indexed": true,
          "internalType": "address",
          "name": "owner",
          "type": "address"
        },
        {
          "indexed": true,
          "internalType": "address",
          "name": "operator",
          "type": "address"
        },
        {
          "indexed": false,
          "internalType": "bool",
          "name": "approved",
          "type": "bool"
        }
      ],
      "name": "ApprovalForAll",
      "type": "event"
    },
    {
      "anonymous": false,
      "inputs": [
        {
          "indexed": false,
          "internalType": "uint256",
          "name": "_badgeDefinitionId",
          "type": "uint256"
        },
        {
          "indexed": false,
          "internalType": "string",
          "name": "_name",
          "type": "string"
        },
        {
          "indexed": false,
          "internalType": "string",
          "name": "_description",
          "type": "string"
        },
        {
          "indexed": false,
          "internalType": "string[]",
          "name": "_tags",
          "type": "string[]"
        },
        {
          "indexed": false,
          "internalType": "string",
          "name": "_image_uri",
          "type": "string"
        }
      ],
      "name": "NewBadgeDefinition",
      "type": "event"
    },
    {
      "anonymous": false,
      "inputs": [
        {
          "indexed": true,
          "internalType": "address",
          "name": "previousOwner",
          "type": "address"
        },
        {
          "indexed": true,
          "internalType": "address",
          "name": "newOwner",
          "type": "address"
        }
      ],
      "name": "OwnershipTransferred",
      "type": "event"
    },
    {
      "anonymous": false,
      "inputs": [
        {
          "indexed": true,
          "internalType": "address",
          "name": "from",
          "type": "address"
        },
        {
          "indexed": true,
          "internalType": "address",
          "name": "to",
          "type": "address"
        },
        {
          "indexed": true,
          "internalType": "uint256",
          "name": "tokenId",
          "type": "uint256"
        }
      ],
      "name": "Transfer",
      "type": "event"
    },
    {
      "inputs": [
        {
          "internalType": "address",
          "name": "to",
          "type": "address"
        },
        {
          "internalType": "uint256",
          "name": "tokenId",
          "type": "uint256"
        }
      ],
      "name": "approve",
      "outputs": [],
      "stateMutability": "nonpayable",
      "type": "function"
    },
    {
      "inputs": [
        {
          "internalType": "address",
          "name": "owner",
          "type": "address"
        }
      ],
      "name": "balanceOf",
      "outputs": [
        {
          "internalType": "uint256",
          "name": "",
          "type": "uint256"
        }
      ],
      "stateMutability": "view",
      "type": "function",
      "constant": true
    },
    {
      "inputs": [
        {
          "internalType": "uint256",
          "name": "tokenId",
          "type": "uint256"
        }
      ],
      "name": "getApproved",
      "outputs": [
        {
          "internalType": "address",
          "name": "",
          "type": "address"
        }
      ],
      "stateMutability": "view",
      "type": "function",
      "constant": true
    },
    {
      "inputs": [
        {
          "internalType": "address",
          "name": "owner",
          "type": "address"
        },
        {
          "internalType": "address",
          "name": "operator",
          "type": "address"
        }
      ],
      "name": "isApprovedForAll",
      "outputs": [
        {
          "internalType": "bool",
          "name": "",
          "type": "bool"
        }
      ],
      "stateMutability": "view",
      "type": "function",
      "constant": true
    },
    {
      "inputs": [],
      "name": "name",
      "outputs": [
        {
          "internalType": "string",
          "name": "",
          "type": "string"
        }
      ],
      "stateMutability": "view",
      "type": "function",
      "constant": true
    },
    {
      "inputs": [],
      "name": "owner",
      "outputs": [
        {
          "internalType": "address",
          "name": "",
          "type": "address"
        }
      ],
      "stateMutability": "view",
      "type": "function",
      "constant": true
    },
    {
      "inputs": [
        {
          "internalType": "uint256",
          "name": "tokenId",
          "type": "uint256"
        }
      ],
      "name": "ownerOf",
      "outputs": [
        {
          "internalType": "address",
          "name": "",
          "type": "address"
        }
      ],
      "stateMutability": "view",
      "type": "function",
      "constant": true
    },
    {
      "inputs": [],
      "name": "renounceOwnership",
      "outputs": [],
      "stateMutability": "nonpayable",
      "type": "function"
    },
    {
      "inputs": [
        {
          "internalType": "address",
          "name": "from",
          "type": "address"
        },
        {
          "internalType": "address",
          "name": "to",
          "type": "address"
        },
        {
          "internalType": "uint256",
          "name": "tokenId",
          "type": "uint256"
        }
      ],
      "name": "safeTransferFrom",
      "outputs": [],
      "stateMutability": "nonpayable",
      "type": "function"
    },
    {
      "inputs": [
        {
          "internalType": "address",
          "name": "from",
          "type": "address"
        },
        {
          "internalType": "address",
          "name": "to",
          "type": "address"
        },
        {
          "internalType": "uint256",
          "name": "tokenId",
          "type": "uint256"
        },
        {
          "internalType": "bytes",
          "name": "_data",
          "type": "bytes"
        }
      ],
      "name": "safeTransferFrom",
      "outputs": [],
      "stateMutability": "nonpayable",
      "type": "function"
    },
    {
      "inputs": [
        {
          "internalType": "address",
          "name": "operator",
          "type": "address"
        },
        {
          "internalType": "bool",
          "name": "approved",
          "type": "bool"
        }
      ],
      "name": "setApprovalForAll",
      "outputs": [],
      "stateMutability": "nonpayable",
      "type": "function"
    },
    {
      "inputs": [
        {
          "internalType": "bytes4",
          "name": "interfaceId",
          "type": "bytes4"
        }
      ],
      "name": "supportsInterface",
      "outputs": [
        {
          "internalType": "bool",
          "name": "",
          "type": "bool"
        }
      ],
      "stateMutability": "view",
      "type": "function",
      "constant": true
    },
    {
      "inputs": [],
      "name": "symbol",
      "outputs": [
        {
          "internalType": "string",
          "name": "",
          "type": "string"
        }
      ],
      "stateMutability": "view",
      "type": "function",
      "constant": true
    },
    {
      "inputs": [
        {
          "internalType": "uint256",
          "name": "index",
          "type": "uint256"
        }
      ],
      "name": "tokenByIndex",
      "outputs": [
        {
          "internalType": "uint256",
          "name": "",
          "type": "uint256"
        }
      ],
      "stateMutability": "view",
      "type": "function",
      "constant": true
    },
    {
      "inputs": [
        {
          "internalType": "address",
          "name": "owner",
          "type": "address"
        },
        {
          "internalType": "uint256",
          "name": "index",
          "type": "uint256"
        }
      ],
      "name": "tokenOfOwnerByIndex",
      "outputs": [
        {
          "internalType": "uint256",
          "name": "",
          "type": "uint256"
        }
      ],
      "stateMutability": "view",
      "type": "function",
      "constant": true
    },
    {
      "inputs": [],
      "name": "totalSupply",
      "outputs": [
        {
          "internalType": "uint256",
          "name": "",
          "type": "uint256"
        }
      ],
      "stateMutability": "view",
      "type": "function",
      "constant": true
    },
    {
      "inputs": [
        {
          "internalType": "address",
          "name": "from",
          "type": "address"
        },
        {
          "internalType": "address",
          "name": "to",
          "type": "address"
        },
        {
          "internalType": "uint256",
          "name": "tokenId",
          "type": "uint256"
        }
      ],
      "name": "transferFrom",
      "outputs": [],
      "stateMutability": "nonpayable",
      "type": "function"
    },
    {
      "inputs": [
        {
          "internalType": "address",
          "name": "newOwner",
          "type": "address"
        }
      ],
      "name": "transferOwnership",
      "outputs": [],
      "stateMutability": "nonpayable",
      "type": "function"
    },
    {
      "inputs": [
        {
          "internalType": "string",
          "name": "_name",
          "type": "string"
        },
        {
          "internalType": "string",
          "name": "_description",
          "type": "string"
        },
        {
          "internalType": "string[]",
          "name": "_tags",
          "type": "string[]"
        },
        {
          "internalType": "string",
          "name": "_image_uri",
          "type": "string"
        },
        {
          "internalType": "bool",
          "name": "_isTransferable",
          "type": "bool"
        }
      ],
      "name": "createBadgeDefinition",
      "outputs": [
        {
          "internalType": "uint256",
          "name": "_badgeDefinitionId",
          "type": "uint256"
        }
      ],
      "stateMutability": "nonpayable",
      "type": "function"
    },
    {
      "inputs": [
        {
          "internalType": "uint256",
          "name": "_badgeDefinitionId",
          "type": "uint256"
        },
        {
          "internalType": "string",
          "name": "_description",
          "type": "string"
        },
        {
          "internalType": "string",
          "name": "_indexer",
          "type": "string"
        },
        {
          "internalType": "string",
          "name": "_protocol",
          "type": "string"
        },
        {
          "internalType": "string",
          "name": "_query",
          "type": "string"
        },
        {
          "internalType": "string",
          "name": "_operator",
          "type": "string"
        },
        {
          "internalType": "string",
          "name": "_condition",
          "type": "string"
        }
      ],
      "name": "addBadgeAttributionCondition",
      "outputs": [],
      "stateMutability": "nonpayable",
      "type": "function"
    },
    {
      "inputs": [
        {
          "internalType": "uint256",
          "name": "_badgeDefinitionId",
          "type": "uint256"
        }
      ],
      "name": "publishBadgeDefinition",
      "outputs": [],
      "stateMutability": "nonpayable",
      "type": "function"
    },
    {
      "inputs": [
        {
          "internalType": "uint256",
          "name": "_badgeDefinitionId",
          "type": "uint256"
        }
      ],
      "name": "getBadgeDefinition",
      "outputs": [
        {
          "internalType": "string",
          "name": "_name",
          "type": "string"
        },
        {
          "internalType": "string",
          "name": "_description",
          "type": "string"
        },
        {
          "internalType": "string[]",
          "name": "_tags",
          "type": "string[]"
        },
        {
          "internalType": "string",
          "name": "_image_uri",
          "type": "string"
        },
        {
          "internalType": "bool",
          "name": "_isTransferable",
          "type": "bool"
        }
      ],
      "stateMutability": "view",
      "type": "function",
      "constant": true
    },
    {
      "inputs": [
        {
          "internalType": "uint256",
          "name": "_badgeDefinitionId",
          "type": "uint256"
        }
      ],
      "name": "getBadgeDefinitionAttributionCondition",
      "outputs": [
        {
          "internalType": "uint256",
          "name": "_numberOfAttributionCondition",
          "type": "uint256"
        },
        {
          "components": [
            {
              "internalType": "uint256",
              "name": "badgeDefinitionId",
              "type": "uint256"
            },
            {
              "internalType": "string",
              "name": "description",
              "type": "string"
            },
            {
              "internalType": "string",
              "name": "indexer",
              "type": "string"
            },
            {
              "internalType": "string",
              "name": "protocol",
              "type": "string"
            },
            {
              "internalType": "string",
              "name": "query",
              "type": "string"
            },
            {
              "internalType": "string",
              "name": "operator",
              "type": "string"
            },
            {
              "internalType": "string",
              "name": "condition",
              "type": "string"
            }
          ],
          "internalType": "struct BadgeFactory.BadgeAttributionCondition[5]",
          "name": "_badgeDefinitionAttributionConditions",
          "type": "tuple[5]"
        }
      ],
      "stateMutability": "view",
      "type": "function",
      "constant": true
    },
    {
      "inputs": [
        {
          "internalType": "uint256",
          "name": "_badgeDefinitionId",
          "type": "uint256"
        }
      ],
      "name": "isBadgeTransferable",
      "outputs": [
        {
          "internalType": "bool",
          "name": "_isTransferable",
          "type": "bool"
        }
      ],
      "stateMutability": "view",
      "type": "function",
      "constant": true
    },
    {
      "inputs": [
        {
          "internalType": "uint256",
          "name": "tokenId",
          "type": "uint256"
        }
      ],
      "name": "tokenURI",
      "outputs": [
        {
          "internalType": "string",
          "name": "",
          "type": "string"
        }
      ],
      "stateMutability": "view",
      "type": "function",
      "constant": true
    }
  ],
  "bytecode": "0x60806040526040518060400160405280600381526020017f4244450000000000000000000000000000000000000000000000000000000000815250600f90805190602001906200005192919062000282565b503480156200005f57600080fd5b506040518060400160405280600f81526020017f4261646765446566696e6974696f6e0000000000000000000000000000000000815250600f8054620000a59062000332565b80601f0160208091040260200160405190810160405280929190818152602001828054620000d39062000332565b8015620001245780601f10620000f85761010080835404028352916020019162000124565b820191906000526020600020905b8154815290600101906020018083116200010657829003601f168201915b5050505050818181600090805190602001906200014392919062000282565b5080600190805190602001906200015c92919062000282565b5050506000620001716200025e60201b60201c565b905080600a60006101000a81548173ffffffffffffffffffffffffffffffffffffffff021916908373ffffffffffffffffffffffffffffffffffffffff1602179055508073ffffffffffffffffffffffffffffffffffffffff16600073ffffffffffffffffffffffffffffffffffffffff167f8be0079c531659141344cd1fd0a4f28419497f9722a3daafe3b4186f6b6457e060405160405180910390a350620002566040518060400160405280600781526020017f697066733a2f2f000000000000000000000000000000000000000000000000008152506200026660201b60201c565b505062000397565b600033905090565b80600b90805190602001906200027e92919062000282565b5050565b828054620002909062000332565b90600052602060002090601f016020900481019282620002b4576000855562000300565b82601f10620002cf57805160ff191683800117855562000300565b8280016001018555821562000300579182015b82811115620002ff578251825591602001919060010190620002e2565b5b5090506200030f919062000313565b5090565b5b808211156200032e57600081600090555060010162000314565b5090565b600060028204905060018216806200034b57607f821691505b6020821081141562000362576200036162000368565b5b50919050565b7f4e487b7100000000000000000000000000000000000000000000000000000000600052602260045260246000fd5b6152c780620003a76000396000f3fe608060405234801561001057600080fd5b50600436106101735760003560e01c80636352211e116100de57806395d89b4111610097578063c87b56dd11610071578063c87b56dd1461046f578063e985e9c51461049f578063ecb12b06146104cf578063f2fde38b1461050357610173565b806395d89b4114610419578063a22cb46514610437578063b88d4fde1461045357610173565b80636352211e1461034457806370a0823114610374578063715018a6146103a457806388cbb0e8146103ae5780638da5cb5b146103ca5780638de54b44146103e857610173565b806318160ddd1161013057806318160ddd1461027257806323b872dd146102905780632d603c5c146102ac5780632f745c59146102c857806342842e0e146102f85780634f6ccce71461031457610173565b806301ffc9a714610178578063036f2536146101a857806306fdde03146101d8578063081812fc146101f6578063095ea7b314610226578063176234b314610242575b600080fd5b610192600480360381019061018d9190613a08565b61051f565b60405161019f9190614a3d565b60405180910390f35b6101c260048036038101906101bd9190613b31565b610599565b6040516101cf9190614a3d565b60405180910390f35b6101e06106b9565b6040516101ed9190614a58565b60405180910390f35b610210600480360381019061020b9190613b31565b61074b565b60405161021d91906149d6565b60405180910390f35b610240600480360381019061023b91906139cc565b6107d0565b005b61025c60048036038101906102579190613a5a565b6108e8565b6040516102699190614d69565b60405180910390f35b61027a610a31565b6040516102879190614d69565b60405180910390f35b6102aa60048036038101906102a591906138c6565b610a3e565b005b6102c660048036038101906102c19190613b5a565b610a9e565b005b6102e260048036038101906102dd91906139cc565b610dec565b6040516102ef9190614d69565b60405180910390f35b610312600480360381019061030d91906138c6565b610e91565b005b61032e60048036038101906103299190613b31565b610eb1565b60405161033b9190614d69565b60405180910390f35b61035e60048036038101906103599190613b31565b610f48565b60405161036b91906149d6565b60405180910390f35b61038e60048036038101906103899190613861565b610ffa565b60405161039b9190614d69565b60405180910390f35b6103ac6110b2565b005b6103c860048036038101906103c39190613b31565b6111ef565b005b6103d2611518565b6040516103df91906149d6565b60405180910390f35b61040260048036038101906103fd9190613b31565b611542565b604051610410929190614d84565b60405180910390f35b610421611af0565b60405161042e9190614a58565b60405180910390f35b610451600480360381019061044c9190613990565b611b82565b005b61046d60048036038101906104689190613915565b611d03565b005b61048960048036038101906104849190613b31565b611d65565b6040516104969190614a58565b60405180910390f35b6104b960048036038101906104b4919061388a565b611e4e565b6040516104c69190614a3d565b60405180910390f35b6104e960048036038101906104e49190613b31565b611ee2565b6040516104fa959493929190614a7a565b60405180910390f35b61051d60048036038101906105189190613861565b612401565b005b60007f780e9d63000000000000000000000000000000000000000000000000000000007bffffffffffffffffffffffffffffffffffffffffffffffffffffffff1916827bffffffffffffffffffffffffffffffffffffffffffffffffffffffff191614806105925750610591826125ad565b5b9050919050565b600081600c81815481106105d6577f4e487b7100000000000000000000000000000000000000000000000000000000600052603260045260246000fd5b906000526020600020906005020160040160019054906101000a900460ff16600f6040516020016106079190614970565b60405160208183030381529060405290610657576040517f08c379a000000000000000000000000000000000000000000000000000000000815260040161064e9190614a58565b60405180910390fd5b50600c8381548110610692577f4e487b7100000000000000000000000000000000000000000000000000000000600052603260045260246000fd5b906000526020600020906005020160040160009054906101000a900460ff16915050919050565b6060600080546106c89061511c565b80601f01602080910402602001604051908101604052809291908181526020018280546106f49061511c565b80156107415780601f1061071657610100808354040283529160200191610741565b820191906000526020600020905b81548152906001019060200180831161072457829003601f168201915b5050505050905090565b60006107568261268f565b610795576040517f08c379a000000000000000000000000000000000000000000000000000000000815260040161078c90614c69565b60405180910390fd5b6004600083815260200190815260200160002060009054906101000a900473ffffffffffffffffffffffffffffffffffffffff169050919050565b60006107db82610f48565b90508073ffffffffffffffffffffffffffffffffffffffff168373ffffffffffffffffffffffffffffffffffffffff16141561084c576040517f08c379a000000000000000000000000000000000000000000000000000000000815260040161084390614d09565b60405180910390fd5b8073ffffffffffffffffffffffffffffffffffffffff1661086b6126fb565b73ffffffffffffffffffffffffffffffffffffffff16148061089a5750610899816108946126fb565b611e4e565b5b6108d9576040517f08c379a00000000000000000000000000000000000000000000000000000000081526004016108d090614bc9565b60405180910390fd5b6108e38383612703565b505050565b6000600c6040518060c00160405280888152602001878152602001868152602001858152602001841515815260200160001515815250908060018154018082558091505060019003906000526020600020906005020160009091909190915060008201518160000190805190602001906109639291906134d0565b5060208201518160010190805190602001906109809291906134d0565b50604082015181600201908051906020019061099d929190613556565b5060608201518160030190805190602001906109ba9291906134d0565b5060808201518160040160006101000a81548160ff02191690831515021790555060a08201518160040160016101000a81548160ff021916908315150217905550505060006001600c80549050610a119190615032565b9050610a24610a1e6126fb565b826127bc565b8091505095945050505050565b6000600880549050905090565b610a4f610a496126fb565b826127da565b610a8e576040517f08c379a0000000000000000000000000000000000000000000000000000000008152600401610a8590614d29565b60405180910390fd5b610a998383836128b8565b505050565b86610aa88161268f565b610ae7576040517f08c379a0000000000000000000000000000000000000000000000000000000008152600401610ade90614ce9565b60405180910390fd5b87610af9610af36126fb565b826127da565b610b38576040517f08c379a0000000000000000000000000000000000000000000000000000000008152600401610b2f90614ca9565b60405180910390fd5b88600c8181548110610b73577f4e487b7100000000000000000000000000000000000000000000000000000000600052603260045260246000fd5b906000526020600020906005020160040160019054906101000a900460ff1615600f604051602001610ba59190614992565b60405160208183030381529060405290610bf5576040517f08c379a0000000000000000000000000000000000000000000000000000000008152600401610bec9190614a58565b60405180910390fd5b50600560ff16600e60008c8152602001908152602001600020805490501115600f604051602001610c2691906149b4565b60405160208183030381529060405290610c76576040517f08c379a0000000000000000000000000000000000000000000000000000000008152600401610c6d9190614a58565b60405180910390fd5b50600d6040518060e001604052808c81526020018b81526020018a8152602001898152602001888152602001878152602001868152509080600181540180825580915050600190039060005260206000209060070201600090919091909150600082015181600001556020820151816001019080519060200190610cfb9291906134d0565b506040820151816002019080519060200190610d189291906134d0565b506060820151816003019080519060200190610d359291906134d0565b506080820151816004019080519060200190610d529291906134d0565b5060a0820151816005019080519060200190610d6f9291906134d0565b5060c0820151816006019080519060200190610d8c9291906134d0565b50505060006001600d80549050610da39190615032565b9050600e60008c81526020019081526020016000208190806001815401808255809150506001900390600052602060002001600090919091909150555050505050505050505050565b6000610df783610ffa565b8210610e38576040517f08c379a0000000000000000000000000000000000000000000000000000000008152600401610e2f90614ae9565b60405180910390fd5b600660008473ffffffffffffffffffffffffffffffffffffffff1673ffffffffffffffffffffffffffffffffffffffff168152602001908152602001600020600083815260200190815260200160002054905092915050565b610eac83838360405180602001604052806000815250611d03565b505050565b6000610ebb610a31565b8210610efc576040517f08c379a0000000000000000000000000000000000000000000000000000000008152600401610ef390614d49565b60405180910390fd5b60088281548110610f36577f4e487b7100000000000000000000000000000000000000000000000000000000600052603260045260246000fd5b90600052602060002001549050919050565b6000806002600084815260200190815260200160002060009054906101000a900473ffffffffffffffffffffffffffffffffffffffff169050600073ffffffffffffffffffffffffffffffffffffffff168173ffffffffffffffffffffffffffffffffffffffff161415610ff1576040517f08c379a0000000000000000000000000000000000000000000000000000000008152600401610fe890614c29565b60405180910390fd5b80915050919050565b60008073ffffffffffffffffffffffffffffffffffffffff168273ffffffffffffffffffffffffffffffffffffffff16141561106b576040517f08c379a000000000000000000000000000000000000000000000000000000000815260040161106290614c09565b60405180910390fd5b600360008373ffffffffffffffffffffffffffffffffffffffff1673ffffffffffffffffffffffffffffffffffffffff168152602001908152602001600020549050919050565b6110ba6126fb565b73ffffffffffffffffffffffffffffffffffffffff166110d8611518565b73ffffffffffffffffffffffffffffffffffffffff161461112e576040517f08c379a000000000000000000000000000000000000000000000000000000000815260040161112590614c89565b60405180910390fd5b600073ffffffffffffffffffffffffffffffffffffffff16600a60009054906101000a900473ffffffffffffffffffffffffffffffffffffffff1673ffffffffffffffffffffffffffffffffffffffff167f8be0079c531659141344cd1fd0a4f28419497f9722a3daafe3b4186f6b6457e060405160405180910390a36000600a60006101000a81548173ffffffffffffffffffffffffffffffffffffffff021916908373ffffffffffffffffffffffffffffffffffffffff160217905550565b806111f98161268f565b611238576040517f08c379a000000000000000000000000000000000000000000000000000000000815260040161122f90614ce9565b60405180910390fd5b8161124a6112446126fb565b826127da565b611289576040517f08c379a000000000000000000000000000000000000000000000000000000000815260040161128090614ca9565b60405180910390fd5b82600c81815481106112c4577f4e487b7100000000000000000000000000000000000000000000000000000000600052603260045260246000fd5b906000526020600020906005020160040160019054906101000a900460ff1615600f6040516020016112f69190614992565b60405160208183030381529060405290611346576040517f08c379a000000000000000000000000000000000000000000000000000000000815260040161133d9190614a58565b60405180910390fd5b506001600c8581548110611383577f4e487b7100000000000000000000000000000000000000000000000000000000600052603260045260246000fd5b906000526020600020906005020160040160016101000a81548160ff0219169083151502179055507f772b455ab67320ffcf6ac5417a8bc130c37550a79f4f810feee977a70d99f2b484600c8681548110611407577f4e487b7100000000000000000000000000000000000000000000000000000000600052603260045260246000fd5b9060005260206000209060050201600001600c8781548110611452577f4e487b7100000000000000000000000000000000000000000000000000000000600052603260045260246000fd5b9060005260206000209060050201600101600c888154811061149d577f4e487b7100000000000000000000000000000000000000000000000000000000600052603260045260246000fd5b9060005260206000209060050201600201600c89815481106114e8577f4e487b7100000000000000000000000000000000000000000000000000000000600052603260045260246000fd5b906000526020600020906005020160030160405161150a959493929190614db4565b60405180910390a150505050565b6000600a60009054906101000a900473ffffffffffffffffffffffffffffffffffffffff16905090565b600061154c6135b6565b826115568161268f565b611595576040517f08c379a000000000000000000000000000000000000000000000000000000000815260040161158c90614ce9565b60405180910390fd5b83600c81815481106115d0577f4e487b7100000000000000000000000000000000000000000000000000000000600052603260045260246000fd5b906000526020600020906005020160040160019054906101000a900460ff16600f6040516020016116019190614970565b60405160208183030381529060405290611651576040517f08c379a00000000000000000000000000000000000000000000000000000000081526004016116489190614a58565b60405180910390fd5b50600e600086815260200190815260200160002080549050935060005b84811015611ae857600d600e600088815260200190815260200160002082815481106116c3577f4e487b7100000000000000000000000000000000000000000000000000000000600052603260045260246000fd5b906000526020600020015481548110611705577f4e487b7100000000000000000000000000000000000000000000000000000000600052603260045260246000fd5b90600052602060002090600702016040518060e0016040529081600082015481526020016001820180546117389061511c565b80601f01602080910402602001604051908101604052809291908181526020018280546117649061511c565b80156117b15780601f10611786576101008083540402835291602001916117b1565b820191906000526020600020905b81548152906001019060200180831161179457829003601f168201915b505050505081526020016002820180546117ca9061511c565b80601f01602080910402602001604051908101604052809291908181526020018280546117f69061511c565b80156118435780601f1061181857610100808354040283529160200191611843565b820191906000526020600020905b81548152906001019060200180831161182657829003601f168201915b5050505050815260200160038201805461185c9061511c565b80601f01602080910402602001604051908101604052809291908181526020018280546118889061511c565b80156118d55780601f106118aa576101008083540402835291602001916118d5565b820191906000526020600020905b8154815290600101906020018083116118b857829003601f168201915b505050505081526020016004820180546118ee9061511c565b80601f016020809104026020016040519081016040528092919081815260200182805461191a9061511c565b80156119675780601f1061193c57610100808354040283529160200191611967565b820191906000526020600020905b81548152906001019060200180831161194a57829003601f168201915b505050505081526020016005820180546119809061511c565b80601f01602080910402602001604051908101604052809291908181526020018280546119ac9061511c565b80156119f95780601f106119ce576101008083540402835291602001916119f9565b820191906000526020600020905b8154815290600101906020018083116119dc57829003601f168201915b50505050508152602001600682018054611a129061511c565b80601f0160208091040260200160405190810160405280929190818152602001828054611a3e9061511c565b8015611a8b5780601f10611a6057610100808354040283529160200191611a8b565b820191906000526020600020905b815481529060010190602001808311611a6e57829003601f168201915b505050505081525050848260058110611acd577f4e487b7100000000000000000000000000000000000000000000000000000000600052603260045260246000fd5b60200201819052508080611ae09061514e565b91505061166e565b505050915091565b606060018054611aff9061511c565b80601f0160208091040260200160405190810160405280929190818152602001828054611b2b9061511c565b8015611b785780601f10611b4d57610100808354040283529160200191611b78565b820191906000526020600020905b815481529060010190602001808311611b5b57829003601f168201915b5050505050905090565b611b8a6126fb565b73ffffffffffffffffffffffffffffffffffffffff168273ffffffffffffffffffffffffffffffffffffffff161415611bf8576040517f08c379a0000000000000000000000000000000000000000000000000000000008152600401611bef90614b89565b60405180910390fd5b8060056000611c056126fb565b73ffffffffffffffffffffffffffffffffffffffff1673ffffffffffffffffffffffffffffffffffffffff16815260200190815260200160002060008473ffffffffffffffffffffffffffffffffffffffff1673ffffffffffffffffffffffffffffffffffffffff16815260200190815260200160002060006101000a81548160ff0219169083151502179055508173ffffffffffffffffffffffffffffffffffffffff16611cb26126fb565b73ffffffffffffffffffffffffffffffffffffffff167f17307eab39ab6107e8899845ad3d59bd9653f200f220920489ca2b5937696c3183604051611cf79190614a3d565b60405180910390a35050565b611d14611d0e6126fb565b836127da565b611d53576040517f08c379a0000000000000000000000000000000000000000000000000000000008152600401611d4a90614d29565b60405180910390fd5b611d5f84848484612b14565b50505050565b6060611d708261268f565b611daf576040517f08c379a0000000000000000000000000000000000000000000000000000000008152600401611da690614be9565b60405180910390fd5b6000611db9612b70565b90506000815111611dd95760405180602001604052806000815250611e46565b80600c8481548110611e14577f4e487b7100000000000000000000000000000000000000000000000000000000600052603260045260246000fd5b9060005260206000209060050201600301604051602001611e3692919061494c565b6040516020818303038152906040525b915050919050565b6000600560008473ffffffffffffffffffffffffffffffffffffffff1673ffffffffffffffffffffffffffffffffffffffff16815260200190815260200160002060008373ffffffffffffffffffffffffffffffffffffffff1673ffffffffffffffffffffffffffffffffffffffff16815260200190815260200160002060009054906101000a900460ff16905092915050565b606080606080600085611ef48161268f565b611f33576040517f08c379a0000000000000000000000000000000000000000000000000000000008152600401611f2a90614ce9565b60405180910390fd5b86600c8181548110611f6e577f4e487b7100000000000000000000000000000000000000000000000000000000600052603260045260246000fd5b906000526020600020906005020160040160019054906101000a900460ff16600f604051602001611f9f9190614970565b60405160208183030381529060405290611fef576040517f08c379a0000000000000000000000000000000000000000000000000000000008152600401611fe69190614a58565b60405180910390fd5b50600c888154811061202a577f4e487b7100000000000000000000000000000000000000000000000000000000600052603260045260246000fd5b9060005260206000209060050201600001600c8981548110612075577f4e487b7100000000000000000000000000000000000000000000000000000000600052603260045260246000fd5b9060005260206000209060050201600101600c8a815481106120c0577f4e487b7100000000000000000000000000000000000000000000000000000000600052603260045260246000fd5b9060005260206000209060050201600201600c8b8154811061210b577f4e487b7100000000000000000000000000000000000000000000000000000000600052603260045260246000fd5b9060005260206000209060050201600301600c8c81548110612156577f4e487b7100000000000000000000000000000000000000000000000000000000600052603260045260246000fd5b906000526020600020906005020160040160009054906101000a900460ff168480546121819061511c565b80601f01602080910402602001604051908101604052809291908181526020018280546121ad9061511c565b80156121fa5780601f106121cf576101008083540402835291602001916121fa565b820191906000526020600020905b8154815290600101906020018083116121dd57829003601f168201915b5050505050945083805461220d9061511c565b80601f01602080910402602001604051908101604052809291908181526020018280546122399061511c565b80156122865780601f1061225b57610100808354040283529160200191612286565b820191906000526020600020905b81548152906001019060200180831161226957829003601f168201915b5050505050935082805480602002602001604051908101604052809291908181526020016000905b8282101561235a5783829060005260206000200180546122cd9061511c565b80601f01602080910402602001604051908101604052809291908181526020018280546122f99061511c565b80156123465780601f1061231b57610100808354040283529160200191612346565b820191906000526020600020905b81548152906001019060200180831161232957829003601f168201915b5050505050815260200190600101906122ae565b50505050925081805461236c9061511c565b80601f01602080910402602001604051908101604052809291908181526020018280546123989061511c565b80156123e55780601f106123ba576101008083540402835291602001916123e5565b820191906000526020600020905b8154815290600101906020018083116123c857829003601f168201915b5050505050915096509650965096509650505091939590929450565b6124096126fb565b73ffffffffffffffffffffffffffffffffffffffff16612427611518565b73ffffffffffffffffffffffffffffffffffffffff161461247d576040517f08c379a000000000000000000000000000000000000000000000000000000000815260040161247490614c89565b60405180910390fd5b600073ffffffffffffffffffffffffffffffffffffffff168173ffffffffffffffffffffffffffffffffffffffff1614156124ed576040517f08c379a00000000000000000000000000000000000000000000000000000000081526004016124e490614b29565b60405180910390fd5b8073ffffffffffffffffffffffffffffffffffffffff16600a60009054906101000a900473ffffffffffffffffffffffffffffffffffffffff1673ffffffffffffffffffffffffffffffffffffffff167f8be0079c531659141344cd1fd0a4f28419497f9722a3daafe3b4186f6b6457e060405160405180910390a380600a60006101000a81548173ffffffffffffffffffffffffffffffffffffffff021916908373ffffffffffffffffffffffffffffffffffffffff16021790555050565b60007f80ac58cd000000000000000000000000000000000000000000000000000000007bffffffffffffffffffffffffffffffffffffffffffffffffffffffff1916827bffffffffffffffffffffffffffffffffffffffffffffffffffffffff1916148061267857507f5b5e139f000000000000000000000000000000000000000000000000000000007bffffffffffffffffffffffffffffffffffffffffffffffffffffffff1916827bffffffffffffffffffffffffffffffffffffffffffffffffffffffff1916145b80612688575061268782612c02565b5b9050919050565b60008073ffffffffffffffffffffffffffffffffffffffff166002600084815260200190815260200160002060009054906101000a900473ffffffffffffffffffffffffffffffffffffffff1673ffffffffffffffffffffffffffffffffffffffff1614159050919050565b600033905090565b816004600083815260200190815260200160002060006101000a81548173ffffffffffffffffffffffffffffffffffffffff021916908373ffffffffffffffffffffffffffffffffffffffff160217905550808273ffffffffffffffffffffffffffffffffffffffff1661277683610f48565b73ffffffffffffffffffffffffffffffffffffffff167f8c5be1e5ebec7d5bd14f71427d1e84f3dd0314c0f7b2291e5b200ac8c7c3b92560405160405180910390a45050565b6127d6828260405180602001604052806000815250612c6c565b5050565b60006127e58261268f565b612824576040517f08c379a000000000000000000000000000000000000000000000000000000000815260040161281b90614ba9565b60405180910390fd5b600061282f83610f48565b90508073ffffffffffffffffffffffffffffffffffffffff168473ffffffffffffffffffffffffffffffffffffffff16148061289e57508373ffffffffffffffffffffffffffffffffffffffff166128868461074b565b73ffffffffffffffffffffffffffffffffffffffff16145b806128af57506128ae8185611e4e565b5b91505092915050565b8273ffffffffffffffffffffffffffffffffffffffff166128d882610f48565b73ffffffffffffffffffffffffffffffffffffffff161461292e576040517f08c379a000000000000000000000000000000000000000000000000000000000815260040161292590614cc9565b60405180910390fd5b600073ffffffffffffffffffffffffffffffffffffffff168273ffffffffffffffffffffffffffffffffffffffff16141561299e576040517f08c379a000000000000000000000000000000000000000000000000000000000815260040161299590614b69565b60405180910390fd5b6129a9838383612cc7565b6129b4600082612703565b6001600360008573ffffffffffffffffffffffffffffffffffffffff1673ffffffffffffffffffffffffffffffffffffffff1681526020019081526020016000206000828254612a049190615032565b925050819055506001600360008473ffffffffffffffffffffffffffffffffffffffff1673ffffffffffffffffffffffffffffffffffffffff1681526020019081526020016000206000828254612a5b9190614fdc565b92505081905550816002600083815260200190815260200160002060006101000a81548173ffffffffffffffffffffffffffffffffffffffff021916908373ffffffffffffffffffffffffffffffffffffffff160217905550808273ffffffffffffffffffffffffffffffffffffffff168473ffffffffffffffffffffffffffffffffffffffff167fddf252ad1be2c89b69c2b068fc378daa952ba7f163c4a11628f55a4df523b3ef60405160405180910390a4505050565b612b1f8484846128b8565b612b2b84848484612ddb565b612b6a576040517f08c379a0000000000000000000000000000000000000000000000000000000008152600401612b6190614b09565b60405180910390fd5b50505050565b6060600b8054612b7f9061511c565b80601f0160208091040260200160405190810160405280929190818152602001828054612bab9061511c565b8015612bf85780601f10612bcd57610100808354040283529160200191612bf8565b820191906000526020600020905b815481529060010190602001808311612bdb57829003601f168201915b5050505050905090565b60007f01ffc9a7000000000000000000000000000000000000000000000000000000007bffffffffffffffffffffffffffffffffffffffffffffffffffffffff1916827bffffffffffffffffffffffffffffffffffffffffffffffffffffffff1916149050919050565b612c768383612f72565b612c836000848484612ddb565b612cc2576040517f08c379a0000000000000000000000000000000000000000000000000000000008152600401612cb990614b09565b60405180910390fd5b505050565b612cd2838383613140565b600073ffffffffffffffffffffffffffffffffffffffff168373ffffffffffffffffffffffffffffffffffffffff161415612d1557612d1081613145565b612d54565b8173ffffffffffffffffffffffffffffffffffffffff168373ffffffffffffffffffffffffffffffffffffffff1614612d5357612d52838261318e565b5b5b600073ffffffffffffffffffffffffffffffffffffffff168273ffffffffffffffffffffffffffffffffffffffff161415612d9757612d92816132fb565b612dd6565b8273ffffffffffffffffffffffffffffffffffffffff168273ffffffffffffffffffffffffffffffffffffffff1614612dd557612dd4828261343e565b5b5b505050565b6000612dfc8473ffffffffffffffffffffffffffffffffffffffff166134bd565b15612f65578373ffffffffffffffffffffffffffffffffffffffff1663150b7a02612e256126fb565b8786866040518563ffffffff1660e01b8152600401612e4794939291906149f1565b602060405180830381600087803b158015612e6157600080fd5b505af1925050508015612e9257506040513d601f19601f82011682018060405250810190612e8f9190613a31565b60015b612f15573d8060008114612ec2576040519150601f19603f3d011682016040523d82523d6000602084013e612ec7565b606091505b50600081511415612f0d576040517f08c379a0000000000000000000000000000000000000000000000000000000008152600401612f0490614b09565b60405180910390fd5b805181602001fd5b63150b7a0260e01b7bffffffffffffffffffffffffffffffffffffffffffffffffffffffff1916817bffffffffffffffffffffffffffffffffffffffffffffffffffffffff191614915050612f6a565b600190505b949350505050565b600073ffffffffffffffffffffffffffffffffffffffff168273ffffffffffffffffffffffffffffffffffffffff161415612fe2576040517f08c379a0000000000000000000000000000000000000000000000000000000008152600401612fd990614c49565b60405180910390fd5b612feb8161268f565b1561302b576040517f08c379a000000000000000000000000000000000000000000000000000000000815260040161302290614b49565b60405180910390fd5b61303760008383612cc7565b6001600360008473ffffffffffffffffffffffffffffffffffffffff1673ffffffffffffffffffffffffffffffffffffffff16815260200190815260200160002060008282546130879190614fdc565b92505081905550816002600083815260200190815260200160002060006101000a81548173ffffffffffffffffffffffffffffffffffffffff021916908373ffffffffffffffffffffffffffffffffffffffff160217905550808273ffffffffffffffffffffffffffffffffffffffff16600073ffffffffffffffffffffffffffffffffffffffff167fddf252ad1be2c89b69c2b068fc378daa952ba7f163c4a11628f55a4df523b3ef60405160405180910390a45050565b505050565b6008805490506009600083815260200190815260200160002081905550600881908060018154018082558091505060019003906000526020600020016000909190919091505550565b6000600161319b84610ffa565b6131a59190615032565b905060006007600084815260200190815260200160002054905081811461328a576000600660008673ffffffffffffffffffffffffffffffffffffffff1673ffffffffffffffffffffffffffffffffffffffff168152602001908152602001600020600084815260200190815260200160002054905080600660008773ffffffffffffffffffffffffffffffffffffffff1673ffffffffffffffffffffffffffffffffffffffff168152602001908152602001600020600084815260200190815260200160002081905550816007600083815260200190815260200160002081905550505b6007600084815260200190815260200160002060009055600660008573ffffffffffffffffffffffffffffffffffffffff1673ffffffffffffffffffffffffffffffffffffffff16815260200190815260200160002060008381526020019081526020016000206000905550505050565b6000600160088054905061330f9190615032565b9050600060096000848152602001908152602001600020549050600060088381548110613365577f4e487b7100000000000000000000000000000000000000000000000000000000600052603260045260246000fd5b9060005260206000200154905080600883815481106133ad577f4e487b7100000000000000000000000000000000000000000000000000000000600052603260045260246000fd5b906000526020600020018190555081600960008381526020019081526020016000208190555060096000858152602001908152602001600020600090556008805480613422577f4e487b7100000000000000000000000000000000000000000000000000000000600052603160045260246000fd5b6001900381819060005260206000200160009055905550505050565b600061344983610ffa565b905081600660008573ffffffffffffffffffffffffffffffffffffffff1673ffffffffffffffffffffffffffffffffffffffff168152602001908152602001600020600083815260200190815260200160002081905550806007600084815260200190815260200160002081905550505050565b600080823b905060008111915050919050565b8280546134dc9061511c565b90600052602060002090601f0160209004810192826134fe5760008555613545565b82601f1061351757805160ff1916838001178555613545565b82800160010185558215613545579182015b82811115613544578251825591602001919060010190613529565b5b50905061355291906135e3565b5090565b8280548282559060005260206000209081019282156135a5579160200282015b828111156135a45782518290805190602001906135949291906134d0565b5091602001919060010190613576565b5b5090506135b29190613600565b5090565b6040518060a001604052806005905b6135cd613624565b8152602001906001900390816135c55790505090565b5b808211156135fc5760008160009055506001016135e4565b5090565b5b8082111561362057600081816136179190613661565b50600101613601565b5090565b6040518060e00160405280600081526020016060815260200160608152602001606081526020016060815260200160608152602001606081525090565b50805461366d9061511c565b6000825580601f1061367f575061369e565b601f01602090049060005260206000209081019061369d91906135e3565b5b50565b60006136b46136af84614e54565b614e23565b9050808382526020820190508260005b858110156136f457813585016136da8882613822565b8452602084019350602083019250506001810190506136c4565b5050509392505050565b600061371161370c84614e80565b614e23565b90508281526020810184848401111561372957600080fd5b6137348482856150da565b509392505050565b600061374f61374a84614eb0565b614e23565b90508281526020810184848401111561376757600080fd5b6137728482856150da565b509392505050565b60008135905061378981615235565b92915050565b600082601f8301126137a057600080fd5b81356137b08482602086016136a1565b91505092915050565b6000813590506137c88161524c565b92915050565b6000813590506137dd81615263565b92915050565b6000815190506137f281615263565b92915050565b600082601f83011261380957600080fd5b81356138198482602086016136fe565b91505092915050565b600082601f83011261383357600080fd5b813561384384826020860161373c565b91505092915050565b60008135905061385b8161527a565b92915050565b60006020828403121561387357600080fd5b60006138818482850161377a565b91505092915050565b6000806040838503121561389d57600080fd5b60006138ab8582860161377a565b92505060206138bc8582860161377a565b9150509250929050565b6000806000606084860312156138db57600080fd5b60006138e98682870161377a565b93505060206138fa8682870161377a565b925050604061390b8682870161384c565b9150509250925092565b6000806000806080858703121561392b57600080fd5b60006139398782880161377a565b945050602061394a8782880161377a565b935050604061395b8782880161384c565b925050606085013567ffffffffffffffff81111561397857600080fd5b613984878288016137f8565b91505092959194509250565b600080604083850312156139a357600080fd5b60006139b18582860161377a565b92505060206139c2858286016137b9565b9150509250929050565b600080604083850312156139df57600080fd5b60006139ed8582860161377a565b92505060206139fe8582860161384c565b9150509250929050565b600060208284031215613a1a57600080fd5b6000613a28848285016137ce565b91505092915050565b600060208284031215613a4357600080fd5b6000613a51848285016137e3565b91505092915050565b600080600080600060a08688031215613a7257600080fd5b600086013567ffffffffffffffff811115613a8c57600080fd5b613a9888828901613822565b955050602086013567ffffffffffffffff811115613ab557600080fd5b613ac188828901613822565b945050604086013567ffffffffffffffff811115613ade57600080fd5b613aea8882890161378f565b935050606086013567ffffffffffffffff811115613b0757600080fd5b613b1388828901613822565b9250506080613b24888289016137b9565b9150509295509295909350565b600060208284031215613b4357600080fd5b6000613b518482850161384c565b91505092915050565b600080600080600080600060e0888a031215613b7557600080fd5b6000613b838a828b0161384c565b975050602088013567ffffffffffffffff811115613ba057600080fd5b613bac8a828b01613822565b965050604088013567ffffffffffffffff811115613bc957600080fd5b613bd58a828b01613822565b955050606088013567ffffffffffffffff811115613bf257600080fd5b613bfe8a828b01613822565b945050608088013567ffffffffffffffff811115613c1b57600080fd5b613c278a828b01613822565b93505060a088013567ffffffffffffffff811115613c4457600080fd5b613c508a828b01613822565b92505060c088013567ffffffffffffffff811115613c6d57600080fd5b613c798a828b01613822565b91505092959891949750929550565b6000613c948383613e79565b905092915050565b6000613ca88383613f1c565b905092915050565b6000613cbc838361486f565b905092915050565b613ccd81615066565b82525050565b6000613cde82614f24565b613ce88185614f82565b935083602082028501613cfa85614ee0565b8060005b85811015613d365784840389528151613d178582613c88565b9450613d2283614f5b565b925060208a01995050600181019050613cfe565b50829750879550505050505092915050565b6000613d5382614f2f565b613d5d8185614f82565b935083602082028501613d6f85614ef0565b8060005b85811015613daa57848403895281613d8b8582613c9c565b9450613d9683614f68565b925060208a01995050600181019050613d73565b50829750879550505050505092915050565b6000613dc782614f3a565b613dd18185614f93565b935083602082028501613de385614f05565b8060005b85811015613e1f5784840389528151613e008582613cb0565b9450613e0b83614f75565b925060208a01995050600181019050613de7565b50829750879550505050505092915050565b613e3a81615078565b82525050565b6000613e4b82614f45565b613e558185614f9e565b9350613e658185602086016150e9565b613e6e81615224565b840191505092915050565b6000613e8482614f50565b613e8e8185614faf565b9350613e9e8185602086016150e9565b613ea781615224565b840191505092915050565b6000613ebd82614f50565b613ec78185614fc0565b9350613ed78185602086016150e9565b613ee081615224565b840191505092915050565b6000613ef682614f50565b613f008185614fd1565b9350613f108185602086016150e9565b80840191505092915050565b60008154613f298161511c565b613f338186614faf565b94506001821660008114613f4e5760018114613f6057613f93565b60ff1983168652602086019350613f93565b613f6985614f0f565b60005b83811015613f8b57815481890152600182019150602081019050613f6c565b808801955050505b50505092915050565b60008154613fa98161511c565b613fb38186614fc0565b94506001821660008114613fce5760018114613fe057614013565b60ff1983168652602086019350614013565b613fe985614f0f565b60005b8381101561400b57815481890152600182019150602081019050613fec565b808801955050505b50505092915050565b600081546140298161511c565b6140338186614fd1565b9450600182166000811461404e576001811461405f57614092565b60ff19831686528186019350614092565b61406885614f0f565b60005b8381101561408a5781548189015260018201915060208101905061406b565b838801955050505b50505092915050565b60006140a8601383614fd1565b91507f3a20756e7075626c697368656420746f6b656e000000000000000000000000006000830152601382019050919050565b60006140e8602b83614fc0565b91507f455243373231456e756d657261626c653a206f776e657220696e646578206f7560008301527f74206f6620626f756e64730000000000000000000000000000000000000000006020830152604082019050919050565b600061414e603283614fc0565b91507f4552433732313a207472616e7366657220746f206e6f6e20455243373231526560008301527f63656976657220696d706c656d656e74657200000000000000000000000000006020830152604082019050919050565b60006141b4601183614fd1565b91507f3a2020726561646f6e6c7920746f6b656e0000000000000000000000000000006000830152601182019050919050565b60006141f4601583614fd1565b91507f3a20746f6f206d616e7920636f6e646974696f6e7300000000000000000000006000830152601582019050919050565b6000614234602683614fc0565b91507f4f776e61626c653a206e6577206f776e657220697320746865207a65726f206160008301527f64647265737300000000000000000000000000000000000000000000000000006020830152604082019050919050565b600061429a601c83614fc0565b91507f4552433732313a20746f6b656e20616c7265616479206d696e746564000000006000830152602082019050919050565b60006142da602483614fc0565b91507f4552433732313a207472616e7366657220746f20746865207a65726f2061646460008301527f72657373000000000000000000000000000000000000000000000000000000006020830152604082019050919050565b6000614340601983614fc0565b91507f4552433732313a20617070726f766520746f2063616c6c6572000000000000006000830152602082019050919050565b6000614380602c83614fc0565b91507f4552433732313a206f70657261746f7220717565727920666f72206e6f6e657860008301527f697374656e7420746f6b656e00000000000000000000000000000000000000006020830152604082019050919050565b60006143e6603883614fc0565b91507f4552433732313a20617070726f76652063616c6c6572206973206e6f74206f7760008301527f6e6572206e6f7220617070726f76656420666f7220616c6c00000000000000006020830152604082019050919050565b600061444c602183614fc0565b91507f4552433732314d657461646174613a206e6f6e6578697374656e7420746f6b6560008301527f6e000000000000000000000000000000000000000000000000000000000000006020830152604082019050919050565b60006144b2602a83614fc0565b91507f4552433732313a2062616c616e636520717565727920666f7220746865207a6560008301527f726f2061646472657373000000000000000000000000000000000000000000006020830152604082019050919050565b6000614518602983614fc0565b91507f4552433732313a206f776e657220717565727920666f72206e6f6e657869737460008301527f656e7420746f6b656e00000000000000000000000000000000000000000000006020830152604082019050919050565b600061457e602083614fc0565b91507f4552433732313a206d696e7420746f20746865207a65726f20616464726573736000830152602082019050919050565b60006145be602c83614fc0565b91507f4552433732313a20617070726f76656420717565727920666f72206e6f6e657860008301527f697374656e7420746f6b656e00000000000000000000000000000000000000006020830152604082019050919050565b6000614624602083614fc0565b91507f4f776e61626c653a2063616c6c6572206973206e6f7420746865206f776e65726000830152602082019050919050565b6000614664601183614fc0565b91507f4552433732313a206e6f74206f776e65720000000000000000000000000000006000830152602082019050919050565b60006146a4602983614fc0565b91507f4552433732313a207472616e73666572206f6620746f6b656e2074686174206960008301527f73206e6f74206f776e00000000000000000000000000000000000000000000006020830152604082019050919050565b600061470a601983614fc0565b91507f4552433732313a206e6f6e6578697374656e7420746f6b656e000000000000006000830152602082019050919050565b600061474a602183614fc0565b91507f4552433732313a20617070726f76616c20746f2063757272656e74206f776e6560008301527f72000000000000000000000000000000000000000000000000000000000000006020830152604082019050919050565b60006147b0603183614fc0565b91507f4552433732313a207472616e736665722063616c6c6572206973206e6f74206f60008301527f776e6572206e6f7220617070726f7665640000000000000000000000000000006020830152604082019050919050565b6000614816602c83614fc0565b91507f455243373231456e756d657261626c653a20676c6f62616c20696e646578206f60008301527f7574206f6620626f756e647300000000000000000000000000000000000000006020830152604082019050919050565b600060e083016000830151614887600086018261492e565b506020830151848203602086015261489f8282613e79565b915050604083015184820360408601526148b98282613e79565b915050606083015184820360608601526148d38282613e79565b915050608083015184820360808601526148ed8282613e79565b91505060a083015184820360a08601526149078282613e79565b91505060c083015184820360c08601526149218282613e79565b9150508091505092915050565b614937816150d0565b82525050565b614946816150d0565b82525050565b60006149588285613eeb565b9150614964828461401c565b91508190509392505050565b600061497c828461401c565b91506149878261409b565b915081905092915050565b600061499e828461401c565b91506149a9826141a7565b915081905092915050565b60006149c0828461401c565b91506149cb826141e7565b915081905092915050565b60006020820190506149eb6000830184613cc4565b92915050565b6000608082019050614a066000830187613cc4565b614a136020830186613cc4565b614a20604083018561493d565b8181036060830152614a328184613e40565b905095945050505050565b6000602082019050614a526000830184613e31565b92915050565b60006020820190508181036000830152614a728184613eb2565b905092915050565b600060a0820190508181036000830152614a948188613eb2565b90508181036020830152614aa88187613eb2565b90508181036040830152614abc8186613cd3565b90508181036060830152614ad08185613eb2565b9050614adf6080830184613e31565b9695505050505050565b60006020820190508181036000830152614b02816140db565b9050919050565b60006020820190508181036000830152614b2281614141565b9050919050565b60006020820190508181036000830152614b4281614227565b9050919050565b60006020820190508181036000830152614b628161428d565b9050919050565b60006020820190508181036000830152614b82816142cd565b9050919050565b60006020820190508181036000830152614ba281614333565b9050919050565b60006020820190508181036000830152614bc281614373565b9050919050565b60006020820190508181036000830152614be2816143d9565b9050919050565b60006020820190508181036000830152614c028161443f565b9050919050565b60006020820190508181036000830152614c22816144a5565b9050919050565b60006020820190508181036000830152614c428161450b565b9050919050565b60006020820190508181036000830152614c6281614571565b9050919050565b60006020820190508181036000830152614c82816145b1565b9050919050565b60006020820190508181036000830152614ca281614617565b9050919050565b60006020820190508181036000830152614cc281614657565b9050919050565b60006020820190508181036000830152614ce281614697565b9050919050565b60006020820190508181036000830152614d02816146fd565b9050919050565b60006020820190508181036000830152614d228161473d565b9050919050565b60006020820190508181036000830152614d42816147a3565b9050919050565b60006020820190508181036000830152614d6281614809565b9050919050565b6000602082019050614d7e600083018461493d565b92915050565b6000604082019050614d99600083018561493d565b8181036020830152614dab8184613dbc565b90509392505050565b600060a082019050614dc9600083018861493d565b8181036020830152614ddb8187613f9c565b90508181036040830152614def8186613f9c565b90508181036060830152614e038185613d48565b90508181036080830152614e178184613f9c565b90509695505050505050565b6000604051905081810181811067ffffffffffffffff82111715614e4a57614e496151f5565b5b8060405250919050565b600067ffffffffffffffff821115614e6f57614e6e6151f5565b5b602082029050602081019050919050565b600067ffffffffffffffff821115614e9b57614e9a6151f5565b5b601f19601f8301169050602081019050919050565b600067ffffffffffffffff821115614ecb57614eca6151f5565b5b601f19601f8301169050602081019050919050565b6000819050602082019050919050565b60008190508160005260206000209050919050565b6000819050919050565b60008190508160005260206000209050919050565b600081519050919050565b600081549050919050565b600060059050919050565b600081519050919050565b600081519050919050565b6000602082019050919050565b6000600182019050919050565b6000602082019050919050565b600082825260208201905092915050565b600081905092915050565b600082825260208201905092915050565b600082825260208201905092915050565b600082825260208201905092915050565b600081905092915050565b6000614fe7826150d0565b9150614ff2836150d0565b9250827fffffffffffffffffffffffffffffffffffffffffffffffffffffffffffffffff0382111561502757615026615197565b5b828201905092915050565b600061503d826150d0565b9150615048836150d0565b92508282101561505b5761505a615197565b5b828203905092915050565b6000615071826150b0565b9050919050565b60008115159050919050565b60007fffffffff0000000000000000000000000000000000000000000000000000000082169050919050565b600073ffffffffffffffffffffffffffffffffffffffff82169050919050565b6000819050919050565b82818337600083830152505050565b60005b838110156151075780820151818401526020810190506150ec565b83811115615116576000848401525b50505050565b6000600282049050600182168061513457607f821691505b60208210811415615148576151476151c6565b5b50919050565b6000615159826150d0565b91507fffffffffffffffffffffffffffffffffffffffffffffffffffffffffffffffff82141561518c5761518b615197565b5b600182019050919050565b7f4e487b7100000000000000000000000000000000000000000000000000000000600052601160045260246000fd5b7f4e487b7100000000000000000000000000000000000000000000000000000000600052602260045260246000fd5b7f4e487b7100000000000000000000000000000000000000000000000000000000600052604160045260246000fd5b6000601f19601f8301169050919050565b61523e81615066565b811461524957600080fd5b50565b61525581615078565b811461526057600080fd5b50565b61526c81615084565b811461527757600080fd5b50565b615283816150d0565b811461528e57600080fd5b5056fea264697066735822122084059f9a3dca83e61333c31bd91da703cfb49533b48aef9dcaf3bf1dcedf85f764736f6c63430008000033",
  "immutableReferences": {},
  "source": "// contracts/BadgeDefinitionFactory.sol\n// SPDX-License-Identifier: MIT\npragma solidity ^0.8.0;\n\nimport \"./BadgeFactory.sol\";\n\n/**\n * @title BadgeDefinitionFactory\n * @author Geoffrey Garcia\n * @notice Contract to use to mint and to transfer BadgeDefinition that are ERC721 tokens.\n * @dev The BadgeDefinitionFactory contract provides basic structures, functions & modifiers that allow to manage BadgeDefinition as ERC721 token.\n */\ncontract BadgeDefinitionFactory is BadgeFactory {\n\n    /**\n    * @notice Event emitted after a BadgeDefinition publishing.\n    * @dev Event emitted after a BadgeDefinition publishing.\n    * @param _badgeDefinitionId The ID of the BadgeDefinition.\n    * @param _name The name of the token.\n    * @param _description The descrition of the token.\n    * @param _tags The list of the tags associated to the token.\n    * @param _image_uri The URI of the image associated to the token.\n    */\n    event NewBadgeDefinition(uint _badgeDefinitionId, string _name, string _description, string[] _tags, string _image_uri);\n    \n    // Badge definition structure\n    struct BadgeDefinition {\n        string name;            // the name of the token\n        string description;     // the descrition of the token\n        string[] tags;          // the list of the tags associated to the token\n        string image_uri;       // the URI of the image associated to the token\n        bool isTransferable;    // the flag indicates if BadgeToken producted using it can be transfered\n        bool isPublished;       // the flag indicates if it can be used right now\n    }\n\n    // Storage of the badge definitionsg\n    BadgeDefinition[] private _badgeDefinitions;                      // BadgeDefinition storage\n    BadgeAttributionCondition[] private _badgeAttributionConditions;  // BadgeAttributionCondition storage\n    mapping(uint => uint[]) private _attributionConditionList;        // Links beetween BadgeDefinition and its BadgeAttributionCondition\n    string badgeDefinitionSymbol = \"BDE\";                             // Symbol of the ERC721 tokens of the BadgeDefinition\n\n    /**\n    * @dev See {ERC721-constructor}.\n    */\n    constructor() BadgeFactory(\"BadgeDefinition\", badgeDefinitionSymbol) {\n    }\n\n    /**\n    * @dev Throws if called on an already published token.\n    * @param _badgeDefinitionId The ID of the BadgeDefinition.\n    */\n    modifier onlyUnpublishedBadgeDefinition(uint _badgeDefinitionId) {\n        require(!(_badgeDefinitions[_badgeDefinitionId].isPublished), string(abi.encodePacked(badgeDefinitionSymbol, \":  readonly token\")));\n        _;\n    }\n\n    /**\n    * @dev Throws if called on an unpublished token.\n    * @param _badgeDefinitionId The ID of the BadgeDefinition.\n    */\n    modifier onlyPublishedBadgeDefinition(uint _badgeDefinitionId) {\n        require(_badgeDefinitions[_badgeDefinitionId].isPublished, string(abi.encodePacked(badgeDefinitionSymbol, \": unpublished token\")));\n        _;\n    }\n\n    /**\n    * @notice Function to mint a BadgeDefinition as ERC721 tokens.\n    * @dev Creates & store a BadgeDefinition.\n    * @param _name The name of the token.\n    * @param _description The descrition of the token.\n    * @param _tags The list of the tags associated to the token.\n    * @param _image_uri The URI of the image associated to the token.\n    * @param _isTransferable The flag indicates if BadgeToken producted using it can be transfered.\n    * @return _badgeDefinitionId The ID of the new BadgeDefinition.\n    */\n    function createBadgeDefinition(string memory _name, string memory _description, string[] memory _tags, string memory _image_uri, bool _isTransferable) public returns (uint _badgeDefinitionId) {\n        // Storing the BadgeDefinition\n        _badgeDefinitions.push(BadgeDefinition({ name: _name, description: _description, tags: _tags, image_uri: _image_uri, isTransferable: _isTransferable, isPublished: false}));\n        \n        // Getting the ID of the new BadgeDefinition\n        uint badgeDefinitionId = _badgeDefinitions.length - 1;\n\n        // Minting the BadgeDefinition\n        _safeMint(_msgSender(), badgeDefinitionId);\n\n        return badgeDefinitionId;\n    }\n\n    /**\n    * @notice Function to add a BadgeAttributionCondition to a BadgeDefinition.\n    * @dev Creates & store a BadgeAttributionCondition then link it with a BadgeDefinition.\n    * @param _badgeDefinitionId The ID of the BadgeDefinition.\n    * @param _description The descrition of the condition.\n    * @param _indexer The service indexing the data (possible values: \"thegraph\").\n    * @param _protocol The set/subgraph on the indexer to use (possible values: \"uniswap\", \"compound\").\n    * @param _query The query to run.\n    * @param _operator The operator allowing to compare the query return.\n    * @param _condition The value to compare with the query result.\n    */\n    function addBadgeAttributionCondition(uint _badgeDefinitionId, string memory _description, string memory _indexer, string memory _protocol, string memory _query, string memory _operator, string memory _condition) public existingBadge(_badgeDefinitionId) onlyOwnerOf(_badgeDefinitionId) onlyUnpublishedBadgeDefinition(_badgeDefinitionId) {\n        // Asserting the maximum of conditions for this token has not already been reached\n        require(_attributionConditionList[_badgeDefinitionId].length <= maxNumberOfAttributionConditions, string(abi.encodePacked(badgeDefinitionSymbol, \": too many conditions\")));\n\n        // Storing the BadgeAttributionCondition\n        _badgeAttributionConditions.push(BadgeAttributionCondition({ badgeDefinitionId:_badgeDefinitionId, description: _description, indexer: _indexer, protocol: _protocol, query: _query, operator: _operator, condition: _condition}));\n        \n        // Getting the ID of the new BadgeAttributionCondition\n        uint badgeAttributionConditionId = _badgeAttributionConditions.length - 1;\n\n        //Updating the relationship with its associated BadgeDefinition\n        _attributionConditionList[_badgeDefinitionId].push(badgeAttributionConditionId);\n    }\n\n    /**\n    * @notice Function to make a BadgeDefinition usable to produce badges.\n    * @dev Allows the BadgeDefinition to become usable to produce badges & emit a NewBadgeDefinition event.\n    * @param _badgeDefinitionId The ID of the BadgeDefinition.\n    */\n    function publishBadgeDefinition(uint _badgeDefinitionId) public existingBadge(_badgeDefinitionId) onlyOwnerOf(_badgeDefinitionId) onlyUnpublishedBadgeDefinition(_badgeDefinitionId) {\n        // Set the BadgeDefinition as pusblished\n        _badgeDefinitions[_badgeDefinitionId].isPublished = true;\n\n        // Emit the appropriate event\n        emit NewBadgeDefinition(_badgeDefinitionId, _badgeDefinitions[_badgeDefinitionId].name, _badgeDefinitions[_badgeDefinitionId].description, _badgeDefinitions[_badgeDefinitionId].tags, _badgeDefinitions[_badgeDefinitionId].image_uri);\n    }\n\n    /**\n    * @notice Function to retrieve the informations associated to a BadgeDefinition.\n    * @dev Get the informations associated to a BadgeDefinition (except the conditions).\n    * @param _badgeDefinitionId The ID of the BadgeDefinition.\n    * @return _name The name of the token.\n    * @return _description The descrition of the token.\n    * @return _tags The list of the tags associated to the token.\n    * @return _image_uri The URI of the image associated to the token.\n    * @return _isTransferable The flag indicates if BadgeToken producted using it can be transfered.\n    */\n    function getBadgeDefinition(uint _badgeDefinitionId) public view existingBadge(_badgeDefinitionId) onlyPublishedBadgeDefinition(_badgeDefinitionId) returns (string memory _name, string memory _description, string[] memory _tags, string memory _image_uri, bool _isTransferable) {\n        // Return the informations\n        return (_badgeDefinitions[_badgeDefinitionId].name, _badgeDefinitions[_badgeDefinitionId].description, _badgeDefinitions[_badgeDefinitionId].tags, _badgeDefinitions[_badgeDefinitionId].image_uri, _badgeDefinitions[_badgeDefinitionId].isTransferable);\n    }\n\n    /**\n    * @notice Function to retrieve the list of conditions associated to a BadgeDefinition.\n    * @dev Get the list of BadgeAttributionCondition associated to a BadgeDefinition.\n    * @param _badgeDefinitionId The ID of the BadgeDefinition.\n    * @return _numberOfAttributionCondition The number of associated conditions.\n    * @return _badgeDefinitionAttributionConditions The list of BadgeAttributionCondition.\n    */\n    function getBadgeDefinitionAttributionCondition(uint _badgeDefinitionId) public view existingBadge(_badgeDefinitionId) onlyPublishedBadgeDefinition(_badgeDefinitionId) returns (uint _numberOfAttributionCondition, BadgeAttributionCondition[maxNumberOfAttributionConditions] memory _badgeDefinitionAttributionConditions) {\n        // Get the number of conditions\n        _numberOfAttributionCondition = _attributionConditionList[_badgeDefinitionId].length;\n        \n        // Retrieve all the associated conditions\n        for(uint i=0; i < _numberOfAttributionCondition; i++){\n            _badgeDefinitionAttributionConditions[i] = _badgeAttributionConditions[_attributionConditionList[_badgeDefinitionId][i]];\n        }\n\n        return (_numberOfAttributionCondition, _badgeDefinitionAttributionConditions);\n    }\n\n    /**\n    * @notice Function to test if the badges produced using a BadgeDefinition can be transferred.\n    * @dev Return the boolean set at the BadgeDefinition creation.\n    * @param _badgeDefinitionId The ID of the BadgeDefinition.\n    * @return _isTransferable The result of the test.\n    */\n    function isBadgeTransferable(uint _badgeDefinitionId) external view onlyPublishedBadgeDefinition(_badgeDefinitionId) returns (bool _isTransferable) {\n        return _badgeDefinitions[_badgeDefinitionId].isTransferable;\n    }\n\n    /**\n    * @notice Function to get the URI associated to a token.\n    * @dev Returns the Uniform Resource Identifier (URI) for `tokenId` token.\n    * @param tokenId The ID of the BadgeToken.\n    * @return The result URI associated to the token.\n    */\n    function tokenURI(uint256 tokenId) public view override returns (string memory) {\n        require(_exists(tokenId), \"ERC721Metadata: nonexistent token\");\n\n        string memory baseURI = _baseURI();\n        return bytes(baseURI).length > 0\n            ? string(abi.encodePacked(baseURI, _badgeDefinitions[tokenId].image_uri))\n            : '';\n    }\n}\n",
  "sourcePath": "/home/cryptomarabout/Documents/Blacklist/EtherScore/contracts/contracts/BadgeDefinitionFactory.sol",
  "compiler": {
    "name": "solc",
    "version": "0.8.0+commit.c7dfd78e.Emscripten.clang"
  },
  "schemaVersion": "3.4.1",
  "updatedAt": "2021-08-14T19:19:17.102Z",
  "networkType": "ethereum",
  "devdoc": {
    "author": "Geoffrey Garcia",
    "details": "The BadgeDefinitionFactory contract provides basic structures, functions & modifiers that allow to manage BadgeDefinition as ERC721 token.",
    "events": {
      "NewBadgeDefinition(uint256,string,string,string[],string)": {
        "details": "Event emitted after a BadgeDefinition publishing.",
        "params": {
          "_badgeDefinitionId": "The ID of the BadgeDefinition.",
          "_description": "The descrition of the token.",
          "_image_uri": "The URI of the image associated to the token.",
          "_name": "The name of the token.",
          "_tags": "The list of the tags associated to the token."
        }
      }
    },
    "kind": "dev",
    "methods": {
      "addBadgeAttributionCondition(uint256,string,string,string,string,string,string)": {
        "details": "Creates & store a BadgeAttributionCondition then link it with a BadgeDefinition.",
        "params": {
          "_badgeDefinitionId": "The ID of the BadgeDefinition.",
          "_condition": "The value to compare with the query result.",
          "_description": "The descrition of the condition.",
          "_indexer": "The service indexing the data (possible values: \"thegraph\").",
          "_operator": "The operator allowing to compare the query return.",
          "_protocol": "The set/subgraph on the indexer to use (possible values: \"uniswap\", \"compound\").",
          "_query": "The query to run."
        }
      },
      "approve(address,uint256)": {
        "details": "See {IERC721-approve}."
      },
      "balanceOf(address)": {
        "details": "See {IERC721-balanceOf}."
      },
      "constructor": {
        "details": "See {ERC721-constructor}."
      },
      "createBadgeDefinition(string,string,string[],string,bool)": {
        "details": "Creates & store a BadgeDefinition.",
        "params": {
          "_description": "The descrition of the token.",
          "_image_uri": "The URI of the image associated to the token.",
          "_isTransferable": "The flag indicates if BadgeToken producted using it can be transfered.",
          "_name": "The name of the token.",
          "_tags": "The list of the tags associated to the token."
        },
        "returns": {
          "_badgeDefinitionId": "The ID of the new BadgeDefinition."
        }
      },
      "getApproved(uint256)": {
        "details": "See {IERC721-getApproved}."
      },
      "getBadgeDefinition(uint256)": {
        "details": "Get the informations associated to a BadgeDefinition (except the conditions).",
        "params": {
          "_badgeDefinitionId": "The ID of the BadgeDefinition."
        },
        "returns": {
          "_description": "The descrition of the token.",
          "_image_uri": "The URI of the image associated to the token.",
          "_isTransferable": "The flag indicates if BadgeToken producted using it can be transfered.",
          "_name": "The name of the token.",
          "_tags": "The list of the tags associated to the token."
        }
      },
      "getBadgeDefinitionAttributionCondition(uint256)": {
        "details": "Get the list of BadgeAttributionCondition associated to a BadgeDefinition.",
        "params": {
          "_badgeDefinitionId": "The ID of the BadgeDefinition."
        },
        "returns": {
          "_badgeDefinitionAttributionConditions": "The list of BadgeAttributionCondition.",
          "_numberOfAttributionCondition": "The number of associated conditions."
        }
      },
      "isApprovedForAll(address,address)": {
        "details": "See {IERC721-isApprovedForAll}."
      },
      "isBadgeTransferable(uint256)": {
        "details": "Return the boolean set at the BadgeDefinition creation.",
        "params": {
          "_badgeDefinitionId": "The ID of the BadgeDefinition."
        },
        "returns": {
          "_isTransferable": "The result of the test."
        }
      },
      "name()": {
        "details": "See {IERC721Metadata-name}."
      },
      "owner()": {
        "details": "Returns the address of the current owner."
      },
      "ownerOf(uint256)": {
        "details": "See {IERC721-ownerOf}."
      },
      "publishBadgeDefinition(uint256)": {
        "details": "Allows the BadgeDefinition to become usable to produce badges & emit a NewBadgeDefinition event.",
        "params": {
          "_badgeDefinitionId": "The ID of the BadgeDefinition."
        }
      },
      "renounceOwnership()": {
        "details": "Leaves the contract without owner. It will not be possible to call `onlyOwner` functions anymore. Can only be called by the current owner. NOTE: Renouncing ownership will leave the contract without an owner, thereby removing any functionality that is only available to the owner."
      },
      "safeTransferFrom(address,address,uint256)": {
        "details": "See {IERC721-safeTransferFrom}."
      },
      "safeTransferFrom(address,address,uint256,bytes)": {
        "details": "See {IERC721-safeTransferFrom}."
      },
      "setApprovalForAll(address,bool)": {
        "details": "See {IERC721-setApprovalForAll}."
      },
      "supportsInterface(bytes4)": {
        "details": "See {IERC165-supportsInterface}."
      },
      "symbol()": {
        "details": "See {IERC721Metadata-symbol}."
      },
      "tokenByIndex(uint256)": {
        "details": "See {IERC721Enumerable-tokenByIndex}."
      },
      "tokenOfOwnerByIndex(address,uint256)": {
        "details": "See {IERC721Enumerable-tokenOfOwnerByIndex}."
      },
      "tokenURI(uint256)": {
        "details": "Returns the Uniform Resource Identifier (URI) for `tokenId` token.",
        "params": {
          "tokenId": "The ID of the BadgeToken."
        },
        "returns": {
          "_0": "The result URI associated to the token."
        }
      },
      "totalSupply()": {
        "details": "See {IERC721Enumerable-totalSupply}."
      },
      "transferFrom(address,address,uint256)": {
        "details": "See {IERC721-transferFrom}."
      },
      "transferOwnership(address)": {
        "details": "Transfers ownership of the contract to a new account (`newOwner`). Can only be called by the current owner."
      }
    },
    "title": "BadgeDefinitionFactory",
    "version": 1
  },
  "userdoc": {
    "events": {
      "NewBadgeDefinition(uint256,string,string,string[],string)": {
        "notice": "Event emitted after a BadgeDefinition publishing."
      }
    },
    "kind": "user",
    "methods": {
      "addBadgeAttributionCondition(uint256,string,string,string,string,string,string)": {
        "notice": "Function to add a BadgeAttributionCondition to a BadgeDefinition."
      },
      "createBadgeDefinition(string,string,string[],string,bool)": {
        "notice": "Function to mint a BadgeDefinition as ERC721 tokens."
      },
      "getBadgeDefinition(uint256)": {
        "notice": "Function to retrieve the informations associated to a BadgeDefinition."
      },
      "getBadgeDefinitionAttributionCondition(uint256)": {
        "notice": "Function to retrieve the list of conditions associated to a BadgeDefinition."
      },
      "isBadgeTransferable(uint256)": {
        "notice": "Function to test if the badges produced using a BadgeDefinition can be transferred."
      },
      "publishBadgeDefinition(uint256)": {
        "notice": "Function to make a BadgeDefinition usable to produce badges."
      },
      "tokenURI(uint256)": {
        "notice": "Function to get the URI associated to a token."
      }
    },
    "notice": "Contract to use to mint and to transfer BadgeDefinition that are ERC721 tokens.",
    "version": 1
  }
}