{
  "contractName": "BadgeTokenFactory",
  "abi": [
    {
      "inputs": [
        {
          "internalType": "address",
          "name": "_badgeDefinitionFactoryAddress",
          "type": "address"
        }
      ],
      "stateMutability": "nonpayable",
      "type": "constructor"
    },
    {
      "anonymous": false,
      "inputs": [
        {
          "indexed": true,
          "internalType": "address",
          "name": "owner",
          "type": "address"
        },
        {
          "indexed": true,
          "internalType": "address",
          "name": "approved",
          "type": "address"
        },
        {
          "indexed": true,
          "internalType": "uint256",
          "name": "tokenId",
          "type": "uint256"
        }
      ],
      "name": "Approval",
      "type": "event"
    },
    {
      "anonymous": false,
      "inputs": [
        {
          "indexed": true,
          "internalType": "address",
          "name": "owner",
          "type": "address"
        },
        {
          "indexed": true,
          "internalType": "address",
          "name": "operator",
          "type": "address"
        },
        {
          "indexed": false,
          "internalType": "bool",
          "name": "approved",
          "type": "bool"
        }
      ],
      "name": "ApprovalForAll",
      "type": "event"
    },
    {
      "anonymous": false,
      "inputs": [
        {
          "indexed": false,
          "internalType": "address",
          "name": "_caller",
          "type": "address"
        },
        {
          "indexed": false,
          "internalType": "uint256",
          "name": "_badgeDefinitionId",
          "type": "uint256"
        }
      ],
      "name": "BadgeTokenReady",
      "type": "event"
    },
    {
      "anonymous": false,
      "inputs": [
        {
          "indexed": false,
          "internalType": "uint256",
          "name": "_badgeTokenId",
          "type": "uint256"
        },
        {
          "indexed": false,
          "internalType": "address",
          "name": "_originalOwner",
          "type": "address"
        }
      ],
      "name": "NewBadgeToken",
      "type": "event"
    },
    {
      "anonymous": false,
      "inputs": [
        {
          "indexed": true,
          "internalType": "address",
          "name": "previousOwner",
          "type": "address"
        },
        {
          "indexed": true,
          "internalType": "address",
          "name": "newOwner",
          "type": "address"
        }
      ],
      "name": "OwnershipTransferred",
      "type": "event"
    },
    {
      "anonymous": false,
      "inputs": [
        {
          "indexed": false,
          "internalType": "bytes32",
          "name": "_requestID",
          "type": "bytes32"
        },
        {
          "indexed": false,
          "internalType": "address",
          "name": "_caller",
          "type": "address"
        },
        {
          "indexed": false,
          "internalType": "string",
          "name": "_indexer",
          "type": "string"
        },
        {
          "indexed": false,
          "internalType": "string",
          "name": "_protocol",
          "type": "string"
        },
        {
          "indexed": false,
          "internalType": "string",
          "name": "_query",
          "type": "string"
        }
      ],
      "name": "QueryRequest",
      "type": "event"
    },
    {
      "anonymous": false,
      "inputs": [
        {
          "indexed": false,
          "internalType": "bytes32",
          "name": "_requestID",
          "type": "bytes32"
        },
        {
          "indexed": false,
          "internalType": "string",
          "name": "_queryResult",
          "type": "string"
        }
      ],
      "name": "QueryResultReceived",
      "type": "event"
    },
    {
      "anonymous": false,
      "inputs": [
        {
          "indexed": true,
          "internalType": "address",
          "name": "from",
          "type": "address"
        },
        {
          "indexed": true,
          "internalType": "address",
          "name": "to",
          "type": "address"
        },
        {
          "indexed": true,
          "internalType": "uint256",
          "name": "tokenId",
          "type": "uint256"
        }
      ],
      "name": "Transfer",
      "type": "event"
    },
    {
      "inputs": [
        {
          "internalType": "address",
          "name": "to",
          "type": "address"
        },
        {
          "internalType": "uint256",
          "name": "tokenId",
          "type": "uint256"
        }
      ],
      "name": "approve",
      "outputs": [],
      "stateMutability": "nonpayable",
      "type": "function"
    },
    {
      "inputs": [
        {
          "internalType": "address",
          "name": "owner",
          "type": "address"
        }
      ],
      "name": "balanceOf",
      "outputs": [
        {
          "internalType": "uint256",
          "name": "",
          "type": "uint256"
        }
      ],
      "stateMutability": "view",
      "type": "function",
      "constant": true
    },
    {
      "inputs": [
        {
          "internalType": "uint256",
          "name": "tokenId",
          "type": "uint256"
        }
      ],
      "name": "getApproved",
      "outputs": [
        {
          "internalType": "address",
          "name": "",
          "type": "address"
        }
      ],
      "stateMutability": "view",
      "type": "function",
      "constant": true
    },
    {
      "inputs": [
        {
          "internalType": "address",
          "name": "owner",
          "type": "address"
        },
        {
          "internalType": "address",
          "name": "operator",
          "type": "address"
        }
      ],
      "name": "isApprovedForAll",
      "outputs": [
        {
          "internalType": "bool",
          "name": "",
          "type": "bool"
        }
      ],
      "stateMutability": "view",
      "type": "function",
      "constant": true
    },
    {
      "inputs": [],
      "name": "name",
      "outputs": [
        {
          "internalType": "string",
          "name": "",
          "type": "string"
        }
      ],
      "stateMutability": "view",
      "type": "function",
      "constant": true
    },
    {
      "inputs": [],
      "name": "owner",
      "outputs": [
        {
          "internalType": "address",
          "name": "",
          "type": "address"
        }
      ],
      "stateMutability": "view",
      "type": "function",
      "constant": true
    },
    {
      "inputs": [
        {
          "internalType": "uint256",
          "name": "tokenId",
          "type": "uint256"
        }
      ],
      "name": "ownerOf",
      "outputs": [
        {
          "internalType": "address",
          "name": "",
          "type": "address"
        }
      ],
      "stateMutability": "view",
      "type": "function",
      "constant": true
    },
    {
      "inputs": [],
      "name": "renounceOwnership",
      "outputs": [],
      "stateMutability": "nonpayable",
      "type": "function"
    },
    {
      "inputs": [
        {
          "internalType": "address",
          "name": "from",
          "type": "address"
        },
        {
          "internalType": "address",
          "name": "to",
          "type": "address"
        },
        {
          "internalType": "uint256",
          "name": "tokenId",
          "type": "uint256"
        }
      ],
      "name": "safeTransferFrom",
      "outputs": [],
      "stateMutability": "nonpayable",
      "type": "function"
    },
    {
      "inputs": [
        {
          "internalType": "address",
          "name": "from",
          "type": "address"
        },
        {
          "internalType": "address",
          "name": "to",
          "type": "address"
        },
        {
          "internalType": "uint256",
          "name": "tokenId",
          "type": "uint256"
        },
        {
          "internalType": "bytes",
          "name": "_data",
          "type": "bytes"
        }
      ],
      "name": "safeTransferFrom",
      "outputs": [],
      "stateMutability": "nonpayable",
      "type": "function"
    },
    {
      "inputs": [
        {
          "internalType": "address",
          "name": "operator",
          "type": "address"
        },
        {
          "internalType": "bool",
          "name": "approved",
          "type": "bool"
        }
      ],
      "name": "setApprovalForAll",
      "outputs": [],
      "stateMutability": "nonpayable",
      "type": "function"
    },
    {
      "inputs": [
        {
          "internalType": "bytes4",
          "name": "interfaceId",
          "type": "bytes4"
        }
      ],
      "name": "supportsInterface",
      "outputs": [
        {
          "internalType": "bool",
          "name": "",
          "type": "bool"
        }
      ],
      "stateMutability": "view",
      "type": "function",
      "constant": true
    },
    {
      "inputs": [],
      "name": "symbol",
      "outputs": [
        {
          "internalType": "string",
          "name": "",
          "type": "string"
        }
      ],
      "stateMutability": "view",
      "type": "function",
      "constant": true
    },
    {
      "inputs": [
        {
          "internalType": "uint256",
          "name": "index",
          "type": "uint256"
        }
      ],
      "name": "tokenByIndex",
      "outputs": [
        {
          "internalType": "uint256",
          "name": "",
          "type": "uint256"
        }
      ],
      "stateMutability": "view",
      "type": "function",
      "constant": true
    },
    {
      "inputs": [
        {
          "internalType": "address",
          "name": "owner",
          "type": "address"
        },
        {
          "internalType": "uint256",
          "name": "index",
          "type": "uint256"
        }
      ],
      "name": "tokenOfOwnerByIndex",
      "outputs": [
        {
          "internalType": "uint256",
          "name": "",
          "type": "uint256"
        }
      ],
      "stateMutability": "view",
      "type": "function",
      "constant": true
    },
    {
      "inputs": [],
      "name": "totalSupply",
      "outputs": [
        {
          "internalType": "uint256",
          "name": "",
          "type": "uint256"
        }
      ],
      "stateMutability": "view",
      "type": "function",
      "constant": true
    },
    {
      "inputs": [
        {
          "internalType": "address",
          "name": "from",
          "type": "address"
        },
        {
          "internalType": "address",
          "name": "to",
          "type": "address"
        },
        {
          "internalType": "uint256",
          "name": "tokenId",
          "type": "uint256"
        }
      ],
      "name": "transferFrom",
      "outputs": [],
      "stateMutability": "nonpayable",
      "type": "function"
    },
    {
      "inputs": [
        {
          "internalType": "address",
          "name": "newOwner",
          "type": "address"
        }
      ],
      "name": "transferOwnership",
      "outputs": [],
      "stateMutability": "nonpayable",
      "type": "function"
    },
    {
      "inputs": [
        {
          "internalType": "uint256",
          "name": "_badgeDefinitionId",
          "type": "uint256"
        }
      ],
      "name": "requestBadgeTokenMinting",
      "outputs": [],
      "stateMutability": "nonpayable",
      "type": "function"
    },
    {
      "inputs": [
        {
          "internalType": "uint256",
          "name": "_badgeDefinitionId",
          "type": "uint256"
        },
        {
          "internalType": "address",
          "name": "_to",
          "type": "address"
        }
      ],
      "name": "requestBadgeTokenDroping",
      "outputs": [],
      "stateMutability": "nonpayable",
      "type": "function"
    },
    {
      "inputs": [
        {
          "internalType": "bytes32",
          "name": "_requestID",
          "type": "bytes32"
        },
        {
          "internalType": "string",
          "name": "_queryResult",
          "type": "string"
        }
      ],
      "name": "updateBadgeTokenMinting",
      "outputs": [],
      "stateMutability": "nonpayable",
      "type": "function"
    },
    {
      "inputs": [
        {
          "internalType": "uint256",
          "name": "_badgeDefinitionId",
          "type": "uint256"
        }
      ],
      "name": "mintBadgeToken",
      "outputs": [
        {
          "internalType": "uint256",
          "name": "_badgeTokenId",
          "type": "uint256"
        }
      ],
      "stateMutability": "nonpayable",
      "type": "function"
    },
    {
      "inputs": [
        {
          "internalType": "uint256",
          "name": "_badgeDefinitionId",
          "type": "uint256"
        },
        {
          "internalType": "address",
          "name": "_to",
          "type": "address"
        }
      ],
      "name": "dropBadgeToken",
      "outputs": [
        {
          "internalType": "uint256",
          "name": "_badgeTokenId",
          "type": "uint256"
        }
      ],
      "stateMutability": "nonpayable",
      "type": "function"
    },
    {
      "inputs": [
        {
          "internalType": "address",
          "name": "_owner",
          "type": "address"
        }
      ],
      "name": "getAllOwnedBadges",
      "outputs": [
        {
          "internalType": "uint256",
          "name": "_totalNumberOfBadges",
          "type": "uint256"
        },
        {
          "internalType": "uint256[]",
          "name": "_badgeDefinitionIds",
          "type": "uint256[]"
        },
        {
          "internalType": "uint256[]",
          "name": "_badgeTokenIds",
          "type": "uint256[]"
        }
      ],
      "stateMutability": "view",
      "type": "function",
      "constant": true
    },
    {
      "inputs": [
        {
          "internalType": "address",
          "name": "_owner",
          "type": "address"
        },
        {
          "internalType": "uint256",
          "name": "_badgeDefinitionId",
          "type": "uint256"
        }
      ],
      "name": "doesOwnBadgeFromGivenDefinition",
      "outputs": [
        {
          "internalType": "bool",
          "name": "_evaluationResult",
          "type": "bool"
        }
      ],
      "stateMutability": "view",
      "type": "function",
      "constant": true
    },
    {
      "inputs": [
        {
          "internalType": "uint256",
          "name": "tokenId",
          "type": "uint256"
        }
      ],
      "name": "tokenURI",
      "outputs": [
        {
          "internalType": "string",
          "name": "",
          "type": "string"
        }
      ],
      "stateMutability": "view",
      "type": "function",
      "constant": true
    }
  ],
  "bytecode": "0x60806040526040518060400160405280600381526020017f42544f0000000000000000000000000000000000000000000000000000000000815250601190805190602001906200005192919062000355565b503480156200005f57600080fd5b50604051620074d4380380620074d483398181016040528101906200008591906200042a565b6040518060400160405280600a81526020017f4261646765546f6b656e0000000000000000000000000000000000000000000081525060118054620000ca906200048a565b80601f0160208091040260200160405190810160405280929190818152602001828054620000f8906200048a565b8015620001495780601f106200011d5761010080835404028352916020019162000149565b820191906000526020600020905b8154815290600101906020018083116200012b57829003601f168201915b5050505050818181600090805190602001906200016892919062000355565b5080600190805190602001906200018192919062000355565b5050506000620001966200033160201b60201c565b905080600a60006101000a81548173ffffffffffffffffffffffffffffffffffffffff021916908373ffffffffffffffffffffffffffffffffffffffff1602179055508073ffffffffffffffffffffffffffffffffffffffff16600073ffffffffffffffffffffffffffffffffffffffff167f8be0079c531659141344cd1fd0a4f28419497f9722a3daafe3b4186f6b6457e060405160405180910390a3506200027b6040518060400160405280600781526020017f697066733a2f2f000000000000000000000000000000000000000000000000008152506200033960201b60201c565b505080601660006101000a81548173ffffffffffffffffffffffffffffffffffffffff021916908373ffffffffffffffffffffffffffffffffffffffff160217905550604051620002cc90620003e6565b604051809103906000f080158015620002e9573d6000803e3d6000fd5b50601760006101000a81548173ffffffffffffffffffffffffffffffffffffffff021916908373ffffffffffffffffffffffffffffffffffffffff1602179055505062000509565b600033905090565b80600b90805190602001906200035192919062000355565b5050565b82805462000363906200048a565b90600052602060002090601f016020900481019282620003875760008555620003d3565b82601f10620003a257805160ff1916838001178555620003d3565b82800160010185558215620003d3579182015b82811115620003d2578251825591602001919060010190620003b5565b5b509050620003e29190620003f4565b5090565b610fcb806200650983390190565b5b808211156200040f576000816000905550600101620003f5565b5090565b6000815190506200042481620004ef565b92915050565b6000602082840312156200043d57600080fd5b60006200044d8482850162000413565b91505092915050565b600062000463826200046a565b9050919050565b600073ffffffffffffffffffffffffffffffffffffffff82169050919050565b60006002820490506001821680620004a357607f821691505b60208210811415620004ba57620004b9620004c0565b5b50919050565b7f4e487b7100000000000000000000000000000000000000000000000000000000600052602260045260246000fd5b620004fa8162000456565b81146200050657600080fd5b50565b615ff080620005196000396000f3fe608060405234801561001057600080fd5b506004361061018e5760003560e01c80636352211e116100de5780639e64472811610097578063c87b56dd11610071578063c87b56dd146104a7578063e7f49937146104d7578063e985e9c514610507578063f2fde38b146105375761018e565b80639e64472814610453578063a22cb4651461046f578063b88d4fde1461048b5761018e565b80636352211e1461037b57806370a08231146103ab578063715018a6146103db5780638da5cb5b146103e557806395d89b411461040357806396bd8495146104215761018e565b806323b872dd1161014b57806342842e0e1161012557806342842e0e146102e35780634f6ccce7146102ff5780635216b6401461032f578063566ff49b1461035f5761018e565b806323b872dd1461027b5780632f745c591461029757806333358a94146102c75761018e565b806301ffc9a71461019357806306fdde03146101c3578063081812fc146101e1578063095ea7b3146102115780630a63ea261461022d57806318160ddd1461025d575b600080fd5b6101ad60048036038101906101a89190614925565b610553565b6040516101ba919061575f565b60405180910390f35b6101cb6105cd565b6040516101d89190615812565b60405180910390f35b6101fb60048036038101906101f691906149b8565b61065f565b604051610208919061561b565b60405180910390f35b61022b60048036038101906102269190614843565b6106e4565b005b610247600480360381019061024291906149b8565b6107fc565b6040516102549190615a74565b60405180910390f35b610265610816565b6040516102729190615a74565b60405180910390f35b6102956004803603810190610290919061473d565b610823565b005b6102b160048036038101906102ac9190614843565b610883565b6040516102be9190615a74565b60405180910390f35b6102e160048036038101906102dc91906148d1565b610928565b005b6102fd60048036038101906102f8919061473d565b610bf5565b005b610319600480360381019061031491906149b8565b610c15565b6040516103269190615a74565b60405180910390f35b61034960048036038101906103449190614a0a565b610cac565b6040516103569190615a74565b60405180910390f35b61037960048036038101906103749190614a0a565b6111c5565b005b610395600480360381019061039091906149b8565b6118d4565b6040516103a2919061561b565b60405180910390f35b6103c560048036038101906103c091906146d8565b611986565b6040516103d29190615a74565b60405180910390f35b6103e3611a3e565b005b6103ed611b7b565b6040516103fa919061561b565b60405180910390f35b61040b611ba5565b6040516104189190615812565b60405180910390f35b61043b600480360381019061043691906146d8565b611c37565b60405161044a93929190615ab8565b60405180910390f35b61046d600480360381019061046891906149b8565b612049565b005b61048960048036038101906104849190614807565b61205d565b005b6104a560048036038101906104a0919061478c565b6121de565b005b6104c160048036038101906104bc91906149b8565b612240565b6040516104ce9190615812565b60405180910390f35b6104f160048036038101906104ec9190614843565b6123c3565b6040516104fe919061575f565b60405180910390f35b610521600480360381019061051c9190614701565b612436565b60405161052e919061575f565b60405180910390f35b610551600480360381019061054c91906146d8565b6124ca565b005b60007f780e9d63000000000000000000000000000000000000000000000000000000007bffffffffffffffffffffffffffffffffffffffffffffffffffffffff1916827bffffffffffffffffffffffffffffffffffffffffffffffffffffffff191614806105c657506105c582612676565b5b9050919050565b6060600080546105dc90615de9565b80601f016020809104026020016040519081016040528092919081815260200182805461060890615de9565b80156106555780601f1061062a57610100808354040283529160200191610655565b820191906000526020600020905b81548152906001019060200180831161063857829003601f168201915b5050505050905090565b600061066a82612758565b6106a9576040517f08c379a00000000000000000000000000000000000000000000000000000000081526004016106a0906159b4565b60405180910390fd5b6004600083815260200190815260200160002060009054906101000a900473ffffffffffffffffffffffffffffffffffffffff169050919050565b60006106ef826118d4565b90508073ffffffffffffffffffffffffffffffffffffffff168373ffffffffffffffffffffffffffffffffffffffff161415610760576040517f08c379a000000000000000000000000000000000000000000000000000000000815260040161075790615a14565b60405180910390fd5b8073ffffffffffffffffffffffffffffffffffffffff1661077f6127c4565b73ffffffffffffffffffffffffffffffffffffffff1614806107ae57506107ad816107a86127c4565b612436565b5b6107ed576040517f08c379a00000000000000000000000000000000000000000000000000000000081526004016107e490615914565b60405180910390fd5b6107f783836127cc565b505050565b600061080f8261080a6127c4565b610cac565b9050919050565b6000600880549050905090565b61083461082e6127c4565b82612885565b610873576040517f08c379a000000000000000000000000000000000000000000000000000000000815260040161086a90615a34565b60405180910390fd5b61087e838383612963565b505050565b600061088e83611986565b82106108cf576040517f08c379a00000000000000000000000000000000000000000000000000000000081526004016108c690615834565b60405180910390fd5b600660008473ffffffffffffffffffffffffffffffffffffffff1673ffffffffffffffffffffffffffffffffffffffff168152602001908152602001600020600083815260200190815260200160002054905092915050565b6000601560008481526020019081526020016000205490506000801b81141560118460405160200161095b9291906155a0565b604051602081830303815290604052906109ab576040517f08c379a00000000000000000000000000000000000000000000000000000000081526004016109a29190615812565b60405180910390fd5b506000601360008381526020019081526020016000209050600081600401600086815260200190815260200160002060006101000a81548160ff021916908315150217905550828160050160008681526020019081526020016000209080519060200190610a1a92919061413d565b50601760009054906101000a900473ffffffffffffffffffffffffffffffffffffffff1673ffffffffffffffffffffffffffffffffffffffff1663766700328260000160009054906101000a900473ffffffffffffffffffffffffffffffffffffffff168487876040518563ffffffff1660e01b8152600401610aa09493929190615682565b600060405180830381600087803b158015610aba57600080fd5b505af1158015610ace573d6000803e3d6000fd5b505050507f4afbfe885d2d719250ec837ded71aaf82e8049cacd67243ec226ae9fa243b7498484604051610b039291906157e2565b60405180910390a16000805b826002015481108015610b26575060001515821515145b15610b7e57600083600301600083815260200190815260200160002054905083600401600082815260200190815260200160002060009054906101000a900460ff169250508080610b7690615e1b565b915050610b0f565b50600015158115151415610bee577f525abb79d22b1de57c8f4bcc88ecde5bc43176c4df9b1c8f612cbf6f75daca888260000160009054906101000a900473ffffffffffffffffffffffffffffffffffffffff168360010154604051610be5929190615736565b60405180910390a15b5050505050565b610c10838383604051806020016040528060008152506121de565b505050565b6000610c1f610816565b8210610c60576040517f08c379a0000000000000000000000000000000000000000000000000000000008152600401610c5790615a54565b60405180910390fd5b60088281548110610c9a577f4e487b7100000000000000000000000000000000000000000000000000000000600052603260045260246000fd5b90600052602060002001549050919050565b600082826000601060008373ffffffffffffffffffffffffffffffffffffffff1673ffffffffffffffffffffffffffffffffffffffff168152602001908152602001600020600101600084815260200190815260200160002054146011604051602001610d19919061554b565b60405160208183030381529060405290610d69576040517f08c379a0000000000000000000000000000000000000000000000000000000008152600401610d609190615812565b60405180910390fd5b506000601460008673ffffffffffffffffffffffffffffffffffffffff1673ffffffffffffffffffffffffffffffffffffffff168152602001908152602001600020600087815260200190815260200160002054905060006013600083815260200190815260200160002090508060000160009054906101000a900473ffffffffffffffffffffffffffffffffffffffff1673ffffffffffffffffffffffffffffffffffffffff168673ffffffffffffffffffffffffffffffffffffffff16146011604051602001610e3b9190615507565b60405160208183030381529060405290610e8b576040517f08c379a0000000000000000000000000000000000000000000000000000000008152600401610e829190615812565b60405180910390fd5b50610e946141c3565b610e9e8282612cf6565b6011604051602001610eb091906154e5565b60405160208183030381529060405290610f00576040517f08c379a0000000000000000000000000000000000000000000000000000000008152600401610ef79190615812565b60405180910390fd5b50600c60405180606001604052808a81526020018973ffffffffffffffffffffffffffffffffffffffff1681526020018381525090806001815401808255809150506001900390600052602060002090600702016000909190919091506000820151816000015560208201518160010160006101000a81548173ffffffffffffffffffffffffffffffffffffffff021916908373ffffffffffffffffffffffffffffffffffffffff160217905550604082015181600201906005610fc59291906141ea565b5050506000600c805490509050610fdc8882612f72565b610fe68882613211565b60005b83600201548110156110db576000846003016000838152602001908152602001600020549050601560008281526020019081526020016000206000905584600401600082815260200190815260200160002060006101000a81549060ff0219169055846005016000828152602001908152602001600020600061106c919061423d565b846006016000828152602001908152602001600020600061108d919061423d565b84600701600082815260200190815260200160002060006110ae919061423d565b846003016000838152602001908152602001600020600090555080806110d390615e1b565b915050610fe9565b50601460008973ffffffffffffffffffffffffffffffffffffffff1673ffffffffffffffffffffffffffffffffffffffff16815260200190815260200160002060008a81526020019081526020016000206000905560136000858152602001908152602001600020600080820160006101000a81549073ffffffffffffffffffffffffffffffffffffffff02191690556001820160009055600282016000905550507fc35003c6a276561656b3fa38ba6188210f566b6b608800d3bbbbf6b7660db4bf81896040516111ae929190615a8f565b60405180910390a180965050505050505092915050565b81816000601060008373ffffffffffffffffffffffffffffffffffffffff1673ffffffffffffffffffffffffffffffffffffffff168152602001908152602001600020600101600084815260200190815260200160002054146011604051602001611230919061554b565b60405160208183030381529060405290611280576040517f08c379a00000000000000000000000000000000000000000000000000000000081526004016112779190615812565b60405180910390fd5b506000801b601460008573ffffffffffffffffffffffffffffffffffffffff1673ffffffffffffffffffffffffffffffffffffffff1681526020019081526020016000206000868152602001908152602001600020541460116040516020016112e99190615529565b60405160208183030381529060405290611339576040517f08c379a00000000000000000000000000000000000000000000000000000000081526004016113309190615812565b60405180910390fd5b50611344601261322f565b600042846113526012613245565b604051602001611364939291906155de565b60405160208183030381529060405280519060200120905080601460008673ffffffffffffffffffffffffffffffffffffffff1673ffffffffffffffffffffffffffffffffffffffff1681526020019081526020016000206000878152602001908152602001600020819055506000601360008381526020019081526020016000209050848160000160006101000a81548173ffffffffffffffffffffffffffffffffffffffff021916908373ffffffffffffffffffffffffffffffffffffffff16021790555061143361427d565b6000601660009054906101000a900473ffffffffffffffffffffffffffffffffffffffff1673ffffffffffffffffffffffffffffffffffffffff16638de54b44896040518263ffffffff1660e01b81526004016114909190615a74565b60006040518083038186803b1580156114a857600080fd5b505afa1580156114bc573d6000803e3d6000fd5b505050506040513d6000823e3d601f19601f820116820180604052508101906114e59190614a46565b809350819250505080836002018190555060005b818110156118c9576000601760009054906101000a900473ffffffffffffffffffffffffffffffffffffffff1673ffffffffffffffffffffffffffffffffffffffff16631c5f6d5d8a8887866005811061157c577f4e487b7100000000000000000000000000000000000000000000000000000000600052603260045260246000fd5b6020020151604001518887600581106115be577f4e487b7100000000000000000000000000000000000000000000000000000000600052603260045260246000fd5b602002015160600151898860058110611600577f4e487b7100000000000000000000000000000000000000000000000000000000600052603260045260246000fd5b6020020151608001516040518663ffffffff1660e01b81526004016116299594939291906156ce565b602060405180830381600087803b15801561164357600080fd5b505af1158015611657573d6000803e3d6000fd5b505050506040513d601f19601f8201168201806040525081019061167b91906148a8565b90507f5d3bfb1416e26115bfcf1fa5775a3d88980c92f22fa5ef1094792c749d04d90c818a8685600581106116d9577f4e487b7100000000000000000000000000000000000000000000000000000000600052603260045260246000fd5b60200201516040015187866005811061171b577f4e487b7100000000000000000000000000000000000000000000000000000000600052603260045260246000fd5b60200201516060015188876005811061175d577f4e487b7100000000000000000000000000000000000000000000000000000000600052603260045260246000fd5b60200201516080015160405161177795949392919061577a565b60405180910390a18560156000838152602001908152602001600020819055508085600301600084815260200190815260200160002081905550600185600401600083815260200190815260200160002060006101000a81548160ff021916908315150217905550838260058110611818577f4e487b7100000000000000000000000000000000000000000000000000000000600052603260045260246000fd5b602002015160a00151856006016000838152602001908152602001600020908051906020019061184992919061413d565b50838260058110611883577f4e487b7100000000000000000000000000000000000000000000000000000000600052603260045260246000fd5b602002015160c0015185600701600083815260200190815260200160002090805190602001906118b492919061413d565b505080806118c190615e1b565b9150506114f9565b505050505050505050565b6000806002600084815260200190815260200160002060009054906101000a900473ffffffffffffffffffffffffffffffffffffffff169050600073ffffffffffffffffffffffffffffffffffffffff168173ffffffffffffffffffffffffffffffffffffffff16141561197d576040517f08c379a000000000000000000000000000000000000000000000000000000000815260040161197490615974565b60405180910390fd5b80915050919050565b60008073ffffffffffffffffffffffffffffffffffffffff168273ffffffffffffffffffffffffffffffffffffffff1614156119f7576040517f08c379a00000000000000000000000000000000000000000000000000000000081526004016119ee90615954565b60405180910390fd5b600360008373ffffffffffffffffffffffffffffffffffffffff1673ffffffffffffffffffffffffffffffffffffffff168152602001908152602001600020549050919050565b611a466127c4565b73ffffffffffffffffffffffffffffffffffffffff16611a64611b7b565b73ffffffffffffffffffffffffffffffffffffffff1614611aba576040517f08c379a0000000000000000000000000000000000000000000000000000000008152600401611ab1906159d4565b60405180910390fd5b600073ffffffffffffffffffffffffffffffffffffffff16600a60009054906101000a900473ffffffffffffffffffffffffffffffffffffffff1673ffffffffffffffffffffffffffffffffffffffff167f8be0079c531659141344cd1fd0a4f28419497f9722a3daafe3b4186f6b6457e060405160405180910390a36000600a60006101000a81548173ffffffffffffffffffffffffffffffffffffffff021916908373ffffffffffffffffffffffffffffffffffffffff160217905550565b6000600a60009054906101000a900473ffffffffffffffffffffffffffffffffffffffff16905090565b606060018054611bb490615de9565b80601f0160208091040260200160405190810160405280929190818152602001828054611be090615de9565b8015611c2d5780601f10611c0257610100808354040283529160200191611c2d565b820191906000526020600020905b815481529060010190602001808311611c1057829003601f168201915b5050505050905090565b600060608060011515601060008673ffffffffffffffffffffffffffffffffffffffff1673ffffffffffffffffffffffffffffffffffffffff16815260200190815260200160002060000160009054906101000a900460ff16151514156120425760003073ffffffffffffffffffffffffffffffffffffffff166370a08231866040518263ffffffff1660e01b8152600401611cd3919061561b565b60206040518083038186803b158015611ceb57600080fd5b505afa158015611cff573d6000803e3d6000fd5b505050506040513d601f19601f82011682018060405250810190611d2391906149e1565b67ffffffffffffffff811115611d62577f4e487b7100000000000000000000000000000000000000000000000000000000600052604160045260246000fd5b604051908082528060200260200182016040528015611d905781602001602082028036833780820191505090505b5092503073ffffffffffffffffffffffffffffffffffffffff166370a08231866040518263ffffffff1660e01b8152600401611dcc919061561b565b60206040518083038186803b158015611de457600080fd5b505afa158015611df8573d6000803e3d6000fd5b505050506040513d601f19601f82011682018060405250810190611e1c91906149e1565b67ffffffffffffffff811115611e5b577f4e487b7100000000000000000000000000000000000000000000000000000000600052604160045260246000fd5b604051908082528060200260200182016040528015611e895781602001602082028036833780820191505090505b5091506000600190505b601060008773ffffffffffffffffffffffffffffffffffffffff1673ffffffffffffffffffffffffffffffffffffffff16815260200190815260200160002060030154811161203f57601060008773ffffffffffffffffffffffffffffffffffffffff1673ffffffffffffffffffffffffffffffffffffffff16815260200190815260200160002060020160008281526020019081526020016000205491506000821461202c57600c600183611f499190615cf5565b81548110611f80577f4e487b7100000000000000000000000000000000000000000000000000000000600052603260045260246000fd5b906000526020600020906007020160000154848681518110611fcb577f4e487b7100000000000000000000000000000000000000000000000000000000600052603260045260246000fd5b60200260200101818152505081838681518110612011577f4e487b7100000000000000000000000000000000000000000000000000000000600052603260045260246000fd5b602002602001018181525050848061202890615e1b565b9550505b808061203790615e1b565b915050611e93565b50505b9193909250565b61205a816120556127c4565b6111c5565b50565b6120656127c4565b73ffffffffffffffffffffffffffffffffffffffff168273ffffffffffffffffffffffffffffffffffffffff1614156120d3576040517f08c379a00000000000000000000000000000000000000000000000000000000081526004016120ca906158d4565b60405180910390fd5b80600560006120e06127c4565b73ffffffffffffffffffffffffffffffffffffffff1673ffffffffffffffffffffffffffffffffffffffff16815260200190815260200160002060008473ffffffffffffffffffffffffffffffffffffffff1673ffffffffffffffffffffffffffffffffffffffff16815260200190815260200160002060006101000a81548160ff0219169083151502179055508173ffffffffffffffffffffffffffffffffffffffff1661218d6127c4565b73ffffffffffffffffffffffffffffffffffffffff167f17307eab39ab6107e8899845ad3d59bd9653f200f220920489ca2b5937696c31836040516121d2919061575f565b60405180910390a35050565b6121ef6121e96127c4565b83612885565b61222e576040517f08c379a000000000000000000000000000000000000000000000000000000000815260040161222590615a34565b60405180910390fd5b61223a84848484613253565b50505050565b606061224b82612758565b61228a576040517f08c379a000000000000000000000000000000000000000000000000000000000815260040161228190615934565b60405180910390fd5b60006001836122999190615cf5565b90506000601660009054906101000a900473ffffffffffffffffffffffffffffffffffffffff1673ffffffffffffffffffffffffffffffffffffffff1663c87b56dd600c8481548110612315577f4e487b7100000000000000000000000000000000000000000000000000000000600052603260045260246000fd5b9060005260206000209060070201600001546040518263ffffffff1660e01b81526004016123439190615a74565b60006040518083038186803b15801561235b57600080fd5b505afa15801561236f573d6000803e3d6000fd5b505050506040513d6000823e3d601f19601f820116820180604052508101906123989190614977565b905060008151116123b857604051806020016040528060008152506123ba565b805b92505050919050565b6000600190506000601060008573ffffffffffffffffffffffffffffffffffffffff1673ffffffffffffffffffffffffffffffffffffffff1681526020019081526020016000206001016000848152602001908152602001600020549050600081141561242f57600091505b5092915050565b6000600560008473ffffffffffffffffffffffffffffffffffffffff1673ffffffffffffffffffffffffffffffffffffffff16815260200190815260200160002060008373ffffffffffffffffffffffffffffffffffffffff1673ffffffffffffffffffffffffffffffffffffffff16815260200190815260200160002060009054906101000a900460ff16905092915050565b6124d26127c4565b73ffffffffffffffffffffffffffffffffffffffff166124f0611b7b565b73ffffffffffffffffffffffffffffffffffffffff1614612546576040517f08c379a000000000000000000000000000000000000000000000000000000000815260040161253d906159d4565b60405180910390fd5b600073ffffffffffffffffffffffffffffffffffffffff168173ffffffffffffffffffffffffffffffffffffffff1614156125b6576040517f08c379a00000000000000000000000000000000000000000000000000000000081526004016125ad90615874565b60405180910390fd5b8073ffffffffffffffffffffffffffffffffffffffff16600a60009054906101000a900473ffffffffffffffffffffffffffffffffffffffff1673ffffffffffffffffffffffffffffffffffffffff167f8be0079c531659141344cd1fd0a4f28419497f9722a3daafe3b4186f6b6457e060405160405180910390a380600a60006101000a81548173ffffffffffffffffffffffffffffffffffffffff021916908373ffffffffffffffffffffffffffffffffffffffff16021790555050565b60007f80ac58cd000000000000000000000000000000000000000000000000000000007bffffffffffffffffffffffffffffffffffffffffffffffffffffffff1916827bffffffffffffffffffffffffffffffffffffffffffffffffffffffff1916148061274157507f5b5e139f000000000000000000000000000000000000000000000000000000007bffffffffffffffffffffffffffffffffffffffffffffffffffffffff1916827bffffffffffffffffffffffffffffffffffffffffffffffffffffffff1916145b806127515750612750826132af565b5b9050919050565b60008073ffffffffffffffffffffffffffffffffffffffff166002600084815260200190815260200160002060009054906101000a900473ffffffffffffffffffffffffffffffffffffffff1673ffffffffffffffffffffffffffffffffffffffff1614159050919050565b600033905090565b816004600083815260200190815260200160002060006101000a81548173ffffffffffffffffffffffffffffffffffffffff021916908373ffffffffffffffffffffffffffffffffffffffff160217905550808273ffffffffffffffffffffffffffffffffffffffff1661283f836118d4565b73ffffffffffffffffffffffffffffffffffffffff167f8c5be1e5ebec7d5bd14f71427d1e84f3dd0314c0f7b2291e5b200ac8c7c3b92560405160405180910390a45050565b600061289082612758565b6128cf576040517f08c379a00000000000000000000000000000000000000000000000000000000081526004016128c6906158f4565b60405180910390fd5b60006128da836118d4565b90508073ffffffffffffffffffffffffffffffffffffffff168473ffffffffffffffffffffffffffffffffffffffff16148061294957508373ffffffffffffffffffffffffffffffffffffffff166129318461065f565b73ffffffffffffffffffffffffffffffffffffffff16145b8061295a57506129598185612436565b5b91505092915050565b60006001826129729190615cf5565b9050601660009054906101000a900473ffffffffffffffffffffffffffffffffffffffff1673ffffffffffffffffffffffffffffffffffffffff1663036f2536600c83815481106129ec577f4e487b7100000000000000000000000000000000000000000000000000000000600052603260045260246000fd5b9060005260206000209060070201600001546040518263ffffffff1660e01b8152600401612a1a9190615a74565b60206040518083038186803b158015612a3257600080fd5b505afa158015612a46573d6000803e3d6000fd5b505050506040513d601f19601f82011682018060405250810190612a6a919061487f565b6011600c8381548110612aa6577f4e487b7100000000000000000000000000000000000000000000000000000000600052603260045260246000fd5b906000526020600020906007020160010160009054906101000a900473ffffffffffffffffffffffffffffffffffffffff16604051602001612ae992919061556d565b60405160208183030381529060405290612b39576040517f08c379a0000000000000000000000000000000000000000000000000000000008152600401612b309190615812565b60405180910390fd5b50612b448383612f72565b6000601060008673ffffffffffffffffffffffffffffffffffffffff1673ffffffffffffffffffffffffffffffffffffffff1681526020019081526020016000206001016000600c8481548110612bc4577f4e487b7100000000000000000000000000000000000000000000000000000000600052603260045260246000fd5b90600052602060002090600702016000015481526020019081526020016000205490506000601060008773ffffffffffffffffffffffffffffffffffffffff1673ffffffffffffffffffffffffffffffffffffffff1681526020019081526020016000206001016000600c8581548110612c67577f4e487b7100000000000000000000000000000000000000000000000000000000600052603260045260246000fd5b9060005260206000209060070201600001548152602001908152602001600020819055506000601060008773ffffffffffffffffffffffffffffffffffffffff1673ffffffffffffffffffffffffffffffffffffffff168152602001908152602001600020600201600083815260200190815260200160002081905550612cef858585613319565b5050505050565b60006001905060005b836002015481108015612d16575060011515821515145b15612f6b576000846003016000838152602001908152602001600020549050612f558560050160008381526020019081526020016000208054612d5890615de9565b80601f0160208091040260200160405190810160405280929190818152602001828054612d8490615de9565b8015612dd15780601f10612da657610100808354040283529160200191612dd1565b820191906000526020600020905b815481529060010190602001808311612db457829003601f168201915b50505050508660060160008481526020019081526020016000208054612df690615de9565b80601f0160208091040260200160405190810160405280929190818152602001828054612e2290615de9565b8015612e6f5780601f10612e4457610100808354040283529160200191612e6f565b820191906000526020600020905b815481529060010190602001808311612e5257829003601f168201915b50505050508760070160008581526020019081526020016000208054612e9490615de9565b80601f0160208091040260200160405190810160405280929190818152602001828054612ec090615de9565b8015612f0d5780601f10612ee257610100808354040283529160200191612f0d565b820191906000526020600020905b815481529060010190602001808311612ef057829003601f168201915b5050505050878660058110612f4b577f4e487b7100000000000000000000000000000000000000000000000000000000600052603260045260246000fd5b6020020151613575565b9250508080612f6390615e1b565b915050612cff565b5092915050565b60001515601060008473ffffffffffffffffffffffffffffffffffffffff1673ffffffffffffffffffffffffffffffffffffffff16815260200190815260200160002060000160009054906101000a900460ff161515141561302a576001601060008473ffffffffffffffffffffffffffffffffffffffff1673ffffffffffffffffffffffffffffffffffffffff16815260200190815260200160002060000160006101000a81548160ff0219169083151502179055505b601060008373ffffffffffffffffffffffffffffffffffffffff1673ffffffffffffffffffffffffffffffffffffffff168152602001908152602001600020600301600081548092919061307d90615e1b565b9190505550601060008373ffffffffffffffffffffffffffffffffffffffff1673ffffffffffffffffffffffffffffffffffffffff16815260200190815260200160002060030154601060008473ffffffffffffffffffffffffffffffffffffffff1673ffffffffffffffffffffffffffffffffffffffff1681526020019081526020016000206001016000600c6001856131189190615cf5565b8154811061314f577f4e487b7100000000000000000000000000000000000000000000000000000000600052603260045260246000fd5b90600052602060002090600702016000015481526020019081526020016000208190555080601060008473ffffffffffffffffffffffffffffffffffffffff1673ffffffffffffffffffffffffffffffffffffffff1681526020019081526020016000206002016000601060008673ffffffffffffffffffffffffffffffffffffffff1673ffffffffffffffffffffffffffffffffffffffff168152602001908152602001600020600301548152602001908152602001600020819055505050565b61322b828260405180602001604052806000815250613819565b5050565b6001816000016000828254019250508190555050565b600081600001549050919050565b61325e848484612963565b61326a84848484613874565b6132a9576040517f08c379a00000000000000000000000000000000000000000000000000000000081526004016132a090615854565b60405180910390fd5b50505050565b60007f01ffc9a7000000000000000000000000000000000000000000000000000000007bffffffffffffffffffffffffffffffffffffffffffffffffffffffff1916827bffffffffffffffffffffffffffffffffffffffffffffffffffffffff1916149050919050565b8273ffffffffffffffffffffffffffffffffffffffff16613339826118d4565b73ffffffffffffffffffffffffffffffffffffffff161461338f576040517f08c379a0000000000000000000000000000000000000000000000000000000008152600401613386906159f4565b60405180910390fd5b600073ffffffffffffffffffffffffffffffffffffffff168273ffffffffffffffffffffffffffffffffffffffff1614156133ff576040517f08c379a00000000000000000000000000000000000000000000000000000000081526004016133f6906158b4565b60405180910390fd5b61340a838383613a0b565b6134156000826127cc565b6001600360008573ffffffffffffffffffffffffffffffffffffffff1673ffffffffffffffffffffffffffffffffffffffff16815260200190815260200160002060008282546134659190615cf5565b925050819055506001600360008473ffffffffffffffffffffffffffffffffffffffff1673ffffffffffffffffffffffffffffffffffffffff16815260200190815260200160002060008282546134bc9190615c45565b92505081905550816002600083815260200190815260200160002060006101000a81548173ffffffffffffffffffffffffffffffffffffffff021916908373ffffffffffffffffffffffffffffffffffffffff160217905550808273ffffffffffffffffffffffffffffffffffffffff168473ffffffffffffffffffffffffffffffffffffffff167fddf252ad1be2c89b69c2b068fc378daa952ba7f163c4a11628f55a4df523b3ef60405160405180910390a4505050565b600080848051906020012090506040518060400160405280600181526020017f3c00000000000000000000000000000000000000000000000000000000000000815250805190602001208114156135e0576135cf84613b1f565b6135d887613b1f565b109150613810565b6040518060400160405280600281526020017f3c3d0000000000000000000000000000000000000000000000000000000000008152508051906020012081141561363f5761362d84613b1f565b61363687613b1f565b1115915061380f565b6040518060400160405280600181526020017f3e000000000000000000000000000000000000000000000000000000000000008152508051906020012081141561369d5761368c84613b1f565b61369587613b1f565b11915061380e565b6040518060400160405280600281526020017f3e3d000000000000000000000000000000000000000000000000000000000000815250805190602001208114156136fc576136ea84613b1f565b6136f387613b1f565b1015915061380d565b6040518060400160405280600281526020017f3d3d0000000000000000000000000000000000000000000000000000000000008152508051906020012081141561375a5761374984613b1f565b61375287613b1f565b14915061380c565b6040518060400160405280600281526020017f213d000000000000000000000000000000000000000000000000000000000000815250805190602001208114156137b9576137a784613b1f565b6137b087613b1f565b1415915061380b565b6040518060400160405280600781526020017f7370656369616c0000000000000000000000000000000000000000000000000081525080519060200120811415613809576001915085925061380a565b5b5b5b5b5b5b5b50949350505050565b6138238383613bdf565b6138306000848484613874565b61386f576040517f08c379a000000000000000000000000000000000000000000000000000000000815260040161386690615854565b60405180910390fd5b505050565b60006138958473ffffffffffffffffffffffffffffffffffffffff16613dad565b156139fe578373ffffffffffffffffffffffffffffffffffffffff1663150b7a026138be6127c4565b8786866040518563ffffffff1660e01b81526004016138e09493929190615636565b602060405180830381600087803b1580156138fa57600080fd5b505af192505050801561392b57506040513d601f19601f82011682018060405250810190613928919061494e565b60015b6139ae573d806000811461395b576040519150601f19603f3d011682016040523d82523d6000602084013e613960565b606091505b506000815114156139a6576040517f08c379a000000000000000000000000000000000000000000000000000000000815260040161399d90615854565b60405180910390fd5b805181602001fd5b63150b7a0260e01b7bffffffffffffffffffffffffffffffffffffffffffffffffffffffff1916817bffffffffffffffffffffffffffffffffffffffffffffffffffffffff191614915050613a03565b600190505b949350505050565b613a16838383613dc0565b600073ffffffffffffffffffffffffffffffffffffffff168373ffffffffffffffffffffffffffffffffffffffff161415613a5957613a5481613dc5565b613a98565b8173ffffffffffffffffffffffffffffffffffffffff168373ffffffffffffffffffffffffffffffffffffffff1614613a9757613a968382613e0e565b5b5b600073ffffffffffffffffffffffffffffffffffffffff168273ffffffffffffffffffffffffffffffffffffffff161415613adb57613ad681613f7b565b613b1a565b8273ffffffffffffffffffffffffffffffffffffffff168273ffffffffffffffffffffffffffffffffffffffff1614613b1957613b1882826140be565b5b5b505050565b6000808290506000809250600090505b8151811015613bd8576000828281518110613b73577f4e487b7100000000000000000000000000000000000000000000000000000000600052603260045260246000fd5b602001015160f81c60f81b60f81c60ff16905060308110158015613b98575060398111155b15613bc457603081613baa9190615cf5565b600a85613bb79190615c9b565b613bc19190615c45565b93505b508080613bd090615e1b565b915050613b2f565b5050919050565b600073ffffffffffffffffffffffffffffffffffffffff168273ffffffffffffffffffffffffffffffffffffffff161415613c4f576040517f08c379a0000000000000000000000000000000000000000000000000000000008152600401613c4690615994565b60405180910390fd5b613c5881612758565b15613c98576040517f08c379a0000000000000000000000000000000000000000000000000000000008152600401613c8f90615894565b60405180910390fd5b613ca460008383613a0b565b6001600360008473ffffffffffffffffffffffffffffffffffffffff1673ffffffffffffffffffffffffffffffffffffffff1681526020019081526020016000206000828254613cf49190615c45565b92505081905550816002600083815260200190815260200160002060006101000a81548173ffffffffffffffffffffffffffffffffffffffff021916908373ffffffffffffffffffffffffffffffffffffffff160217905550808273ffffffffffffffffffffffffffffffffffffffff16600073ffffffffffffffffffffffffffffffffffffffff167fddf252ad1be2c89b69c2b068fc378daa952ba7f163c4a11628f55a4df523b3ef60405160405180910390a45050565b600080823b905060008111915050919050565b505050565b6008805490506009600083815260200190815260200160002081905550600881908060018154018082558091505060019003906000526020600020016000909190919091505550565b60006001613e1b84611986565b613e259190615cf5565b9050600060076000848152602001908152602001600020549050818114613f0a576000600660008673ffffffffffffffffffffffffffffffffffffffff1673ffffffffffffffffffffffffffffffffffffffff168152602001908152602001600020600084815260200190815260200160002054905080600660008773ffffffffffffffffffffffffffffffffffffffff1673ffffffffffffffffffffffffffffffffffffffff168152602001908152602001600020600084815260200190815260200160002081905550816007600083815260200190815260200160002081905550505b6007600084815260200190815260200160002060009055600660008573ffffffffffffffffffffffffffffffffffffffff1673ffffffffffffffffffffffffffffffffffffffff16815260200190815260200160002060008381526020019081526020016000206000905550505050565b60006001600880549050613f8f9190615cf5565b9050600060096000848152602001908152602001600020549050600060088381548110613fe5577f4e487b7100000000000000000000000000000000000000000000000000000000600052603260045260246000fd5b90600052602060002001549050806008838154811061402d577f4e487b7100000000000000000000000000000000000000000000000000000000600052603260045260246000fd5b9060005260206000200181905550816009600083815260200190815260200160002081905550600960008581526020019081526020016000206000905560088054806140a2577f4e487b7100000000000000000000000000000000000000000000000000000000600052603160045260246000fd5b6001900381819060005260206000200160009055905550505050565b60006140c983611986565b905081600660008573ffffffffffffffffffffffffffffffffffffffff1673ffffffffffffffffffffffffffffffffffffffff168152602001908152602001600020600083815260200190815260200160002081905550806007600084815260200190815260200160002081905550505050565b82805461414990615de9565b90600052602060002090601f01602090048101928261416b57600085556141b2565b82601f1061418457805160ff19168380011785556141b2565b828001600101855582156141b2579182015b828111156141b1578251825591602001919060010190614196565b5b5090506141bf91906142aa565b5090565b6040518060a001604052806005905b60608152602001906001900390816141d25790505090565b826005810192821561422c579160200282015b8281111561422b57825182908051906020019061421b92919061413d565b50916020019190600101906141fd565b5b50905061423991906142c7565b5090565b50805461424990615de9565b6000825580601f1061425b575061427a565b601f01602090049060005260206000209081019061427991906142aa565b5b50565b6040518060a001604052806005905b6142946142eb565b81526020019060019003908161428c5790505090565b5b808211156142c35760008160009055506001016142ab565b5090565b5b808211156142e757600081816142de919061423d565b506001016142c8565b5090565b6040518060e00160405280600081526020016060815260200160608152602001606081526020016060815260200160608152602001606081525090565b600061433b61433684615b2e565b615afd565b9050808260005b858110156143725781518501614358888261456e565b845260208401935060208301925050600181019050614342565b5050509392505050565b600061438f61438a84615b54565b615afd565b9050828152602081018484840111156143a757600080fd5b6143b2848285615da7565b509392505050565b60006143cd6143c884615b84565b615afd565b9050828152602081018484840111156143e557600080fd5b6143f0848285615da7565b509392505050565b600061440b61440684615b84565b615afd565b90508281526020810184848401111561442357600080fd5b61442e848285615db6565b509392505050565b60008135905061444581615f47565b92915050565b600082601f83011261445c57600080fd5b6005614469848285614328565b91505092915050565b60008135905061448181615f5e565b92915050565b60008151905061449681615f5e565b92915050565b6000813590506144ab81615f75565b92915050565b6000815190506144c081615f75565b92915050565b6000813590506144d581615f8c565b92915050565b6000815190506144ea81615f8c565b92915050565b600082601f83011261450157600080fd5b813561451184826020860161437c565b91505092915050565b600082601f83011261452b57600080fd5b813561453b8482602086016143ba565b91505092915050565b600082601f83011261455557600080fd5b81516145658482602086016143f8565b91505092915050565b600060e0828403121561458057600080fd5b61458a60e0615afd565b9050600061459a848285016146c3565b600083015250602082015167ffffffffffffffff8111156145ba57600080fd5b6145c684828501614544565b602083015250604082015167ffffffffffffffff8111156145e657600080fd5b6145f284828501614544565b604083015250606082015167ffffffffffffffff81111561461257600080fd5b61461e84828501614544565b606083015250608082015167ffffffffffffffff81111561463e57600080fd5b61464a84828501614544565b60808301525060a082015167ffffffffffffffff81111561466a57600080fd5b61467684828501614544565b60a08301525060c082015167ffffffffffffffff81111561469657600080fd5b6146a284828501614544565b60c08301525092915050565b6000813590506146bd81615fa3565b92915050565b6000815190506146d281615fa3565b92915050565b6000602082840312156146ea57600080fd5b60006146f884828501614436565b91505092915050565b6000806040838503121561471457600080fd5b600061472285828601614436565b925050602061473385828601614436565b9150509250929050565b60008060006060848603121561475257600080fd5b600061476086828701614436565b935050602061477186828701614436565b9250506040614782868287016146ae565b9150509250925092565b600080600080608085870312156147a257600080fd5b60006147b087828801614436565b94505060206147c187828801614436565b93505060406147d2878288016146ae565b925050606085013567ffffffffffffffff8111156147ef57600080fd5b6147fb878288016144f0565b91505092959194509250565b6000806040838503121561481a57600080fd5b600061482885828601614436565b925050602061483985828601614472565b9150509250929050565b6000806040838503121561485657600080fd5b600061486485828601614436565b9250506020614875858286016146ae565b9150509250929050565b60006020828403121561489157600080fd5b600061489f84828501614487565b91505092915050565b6000602082840312156148ba57600080fd5b60006148c8848285016144b1565b91505092915050565b600080604083850312156148e457600080fd5b60006148f28582860161449c565b925050602083013567ffffffffffffffff81111561490f57600080fd5b61491b8582860161451a565b9150509250929050565b60006020828403121561493757600080fd5b6000614945848285016144c6565b91505092915050565b60006020828403121561496057600080fd5b600061496e848285016144db565b91505092915050565b60006020828403121561498957600080fd5b600082015167ffffffffffffffff8111156149a357600080fd5b6149af84828501614544565b91505092915050565b6000602082840312156149ca57600080fd5b60006149d8848285016146ae565b91505092915050565b6000602082840312156149f357600080fd5b6000614a01848285016146c3565b91505092915050565b60008060408385031215614a1d57600080fd5b6000614a2b858286016146ae565b9250506020614a3c85828601614436565b9150509250929050565b60008060408385031215614a5957600080fd5b6000614a67858286016146c3565b925050602083015167ffffffffffffffff811115614a8457600080fd5b614a908582860161444b565b9150509250929050565b6000614aa683836154b0565b60208301905092915050565b614abb81615d29565b82525050565b614ad2614acd82615d29565b615e64565b82525050565b6000614ae382615bd9565b614aed8185615c07565b9350614af883615bb4565b8060005b83811015614b29578151614b108882614a9a565b9750614b1b83615bfa565b925050600181019050614afc565b5085935050505092915050565b614b3f81615d3b565b82525050565b614b4e81615d47565b82525050565b614b65614b6082615d47565b615e76565b82525050565b6000614b7682615be4565b614b808185615c18565b9350614b90818560208601615db6565b614b9981615f29565b840191505092915050565b6000614baf82615bef565b614bb98185615c29565b9350614bc9818560208601615db6565b614bd281615f29565b840191505092915050565b60008154614bea81615de9565b614bf48186615c3a565b94506001821660008114614c0f5760018114614c2057614c53565b60ff19831686528186019350614c53565b614c2985615bc4565b60005b83811015614c4b57815481890152600182019150602081019050614c2c565b838801955050505b50505092915050565b6000614c69602b83615c29565b91507f455243373231456e756d657261626c653a206f776e657220696e646578206f7560008301527f74206f6620626f756e64730000000000000000000000000000000000000000006020830152604082019050919050565b6000614ccf603283615c29565b91507f4552433732313a207472616e7366657220746f206e6f6e20455243373231526560008301527f63656976657220696d706c656d656e74657200000000000000000000000000006020830152604082019050919050565b6000614d35602683615c29565b91507f4f776e61626c653a206e6577206f776e657220697320746865207a65726f206160008301527f64647265737300000000000000000000000000000000000000000000000000006020830152604082019050919050565b6000614d9b601c83615c29565b91507f4552433732313a20746f6b656e20616c7265616479206d696e746564000000006000830152602082019050919050565b6000614ddb602483615c29565b91507f4552433732313a207472616e7366657220746f20746865207a65726f2061646460008301527f72657373000000000000000000000000000000000000000000000000000000006020830152604082019050919050565b6000614e41601983615c29565b91507f4552433732313a20617070726f766520746f2063616c6c6572000000000000006000830152602082019050919050565b6000614e81602c83615c29565b91507f4552433732313a206f70657261746f7220717565727920666f72206e6f6e657860008301527f697374656e7420746f6b656e00000000000000000000000000000000000000006020830152604082019050919050565b6000614ee7602083615c3a565b91507f3a206e6f742066756c6c66696c6c696e672074686520636f6e646974696f6e736000830152602082019050919050565b6000614f27600183615c3a565b91507f29000000000000000000000000000000000000000000000000000000000000006000830152600182019050919050565b6000614f67603883615c29565b91507f4552433732313a20617070726f76652063616c6c6572206973206e6f74206f7760008301527f6e6572206e6f7220617070726f76656420666f7220616c6c00000000000000006020830152604082019050919050565b6000614fcd602183615c29565b91507f4552433732314d657461646174613a206e6f6e6578697374656e7420746f6b6560008301527f6e000000000000000000000000000000000000000000000000000000000000006020830152604082019050919050565b6000615033602a83615c29565b91507f4552433732313a2062616c616e636520717565727920666f7220746865207a6560008301527f726f2061646472657373000000000000000000000000000000000000000000006020830152604082019050919050565b6000615099602983615c29565b91507f4552433732313a206f776e657220717565727920666f72206e6f6e657869737460008301527f656e7420746f6b656e00000000000000000000000000000000000000000000006020830152604082019050919050565b60006150ff602083615c29565b91507f4552433732313a206d696e7420746f20746865207a65726f20616464726573736000830152602082019050919050565b600061513f602c83615c29565b91507f4552433732313a20617070726f76656420717565727920666f72206e6f6e657860008301527f697374656e7420746f6b656e00000000000000000000000000000000000000006020830152604082019050919050565b60006151a5602083615c29565b91507f4f776e61626c653a2063616c6c6572206973206e6f7420746865206f776e65726000830152602082019050919050565b60006151e5601483615c3a565b91507f3a206e6f742074686520726967687420757365720000000000000000000000006000830152601482019050919050565b6000615225601483615c3a565b91507f3a20696e206d696e74696e672070726f636573730000000000000000000000006000830152601482019050919050565b6000615265602983615c29565b91507f4552433732313a207472616e73666572206f6620746f6b656e2074686174206960008301527f73206e6f74206f776e00000000000000000000000000000000000000000000006020830152604082019050919050565b60006152cb602183615c29565b91507f4552433732313a20617070726f76616c20746f2063757272656e74206f776e6560008301527f72000000000000000000000000000000000000000000000000000000000000006020830152604082019050919050565b6000615331600f83615c3a565b91507f3a20616c7265616479206f776e656400000000000000000000000000000000006000830152600f82019050919050565b6000615371601183615c3a565b91507f3a206e6f6e7472616e7366657261626c650000000000000000000000000000006000830152601182019050919050565b60006153b1603183615c29565b91507f4552433732313a207472616e736665722063616c6c6572206973206e6f74206f60008301527f776e6572206e6f7220617070726f7665640000000000000000000000000000006020830152604082019050919050565b6000615417602c83615c29565b91507f455243373231456e756d657261626c653a20676c6f62616c20696e646578206f60008301527f7574206f6620626f756e647300000000000000000000000000000000000000006020830152604082019050919050565b600061547d601383615c3a565b91507f3a2077726f6e67207265717565737420494428000000000000000000000000006000830152601382019050919050565b6154b981615d9d565b82525050565b6154c881615d9d565b82525050565b6154df6154da82615d9d565b615e92565b82525050565b60006154f18284614bdd565b91506154fc82614eda565b915081905092915050565b60006155138284614bdd565b915061551e826151d8565b915081905092915050565b60006155358284614bdd565b915061554082615218565b915081905092915050565b60006155578284614bdd565b915061556282615324565b915081905092915050565b60006155798285614bdd565b915061558482615364565b91506155908284614ac1565b6014820191508190509392505050565b60006155ac8285614bdd565b91506155b782615470565b91506155c38284614b54565b6020820191506155d282614f1a565b91508190509392505050565b60006155ea82866154ce565b6020820191506155fa8285614ac1565b60148201915061560a82846154ce565b602082019150819050949350505050565b60006020820190506156306000830184614ab2565b92915050565b600060808201905061564b6000830187614ab2565b6156586020830186614ab2565b61566560408301856154bf565b81810360608301526156778184614b6b565b905095945050505050565b60006080820190506156976000830187614ab2565b6156a46020830186614b45565b6156b16040830185614b45565b81810360608301526156c38184614ba4565b905095945050505050565b600060a0820190506156e36000830188614ab2565b6156f06020830187614b45565b81810360408301526157028186614ba4565b905081810360608301526157168185614ba4565b9050818103608083015261572a8184614ba4565b90509695505050505050565b600060408201905061574b6000830185614ab2565b61575860208301846154bf565b9392505050565b60006020820190506157746000830184614b36565b92915050565b600060a08201905061578f6000830188614b45565b61579c6020830187614ab2565b81810360408301526157ae8186614ba4565b905081810360608301526157c28185614ba4565b905081810360808301526157d68184614ba4565b90509695505050505050565b60006040820190506157f76000830185614b45565b81810360208301526158098184614ba4565b90509392505050565b6000602082019050818103600083015261582c8184614ba4565b905092915050565b6000602082019050818103600083015261584d81614c5c565b9050919050565b6000602082019050818103600083015261586d81614cc2565b9050919050565b6000602082019050818103600083015261588d81614d28565b9050919050565b600060208201905081810360008301526158ad81614d8e565b9050919050565b600060208201905081810360008301526158cd81614dce565b9050919050565b600060208201905081810360008301526158ed81614e34565b9050919050565b6000602082019050818103600083015261590d81614e74565b9050919050565b6000602082019050818103600083015261592d81614f5a565b9050919050565b6000602082019050818103600083015261594d81614fc0565b9050919050565b6000602082019050818103600083015261596d81615026565b9050919050565b6000602082019050818103600083015261598d8161508c565b9050919050565b600060208201905081810360008301526159ad816150f2565b9050919050565b600060208201905081810360008301526159cd81615132565b9050919050565b600060208201905081810360008301526159ed81615198565b9050919050565b60006020820190508181036000830152615a0d81615258565b9050919050565b60006020820190508181036000830152615a2d816152be565b9050919050565b60006020820190508181036000830152615a4d816153a4565b9050919050565b60006020820190508181036000830152615a6d8161540a565b9050919050565b6000602082019050615a8960008301846154bf565b92915050565b6000604082019050615aa460008301856154bf565b615ab16020830184614ab2565b9392505050565b6000606082019050615acd60008301866154bf565b8181036020830152615adf8185614ad8565b90508181036040830152615af38184614ad8565b9050949350505050565b6000604051905081810181811067ffffffffffffffff82111715615b2457615b23615efa565b5b8060405250919050565b600067ffffffffffffffff821115615b4957615b48615efa565b5b602082029050919050565b600067ffffffffffffffff821115615b6f57615b6e615efa565b5b601f19601f8301169050602081019050919050565b600067ffffffffffffffff821115615b9f57615b9e615efa565b5b601f19601f8301169050602081019050919050565b6000819050602082019050919050565b60008190508160005260206000209050919050565b600081519050919050565b600081519050919050565b600081519050919050565b6000602082019050919050565b600082825260208201905092915050565b600082825260208201905092915050565b600082825260208201905092915050565b600081905092915050565b6000615c5082615d9d565b9150615c5b83615d9d565b9250827fffffffffffffffffffffffffffffffffffffffffffffffffffffffffffffffff03821115615c9057615c8f615e9c565b5b828201905092915050565b6000615ca682615d9d565b9150615cb183615d9d565b9250817fffffffffffffffffffffffffffffffffffffffffffffffffffffffffffffffff0483118215151615615cea57615ce9615e9c565b5b828202905092915050565b6000615d0082615d9d565b9150615d0b83615d9d565b925082821015615d1e57615d1d615e9c565b5b828203905092915050565b6000615d3482615d7d565b9050919050565b60008115159050919050565b6000819050919050565b60007fffffffff0000000000000000000000000000000000000000000000000000000082169050919050565b600073ffffffffffffffffffffffffffffffffffffffff82169050919050565b6000819050919050565b82818337600083830152505050565b60005b83811015615dd4578082015181840152602081019050615db9565b83811115615de3576000848401525b50505050565b60006002820490506001821680615e0157607f821691505b60208210811415615e1557615e14615ecb565b5b50919050565b6000615e2682615d9d565b91507fffffffffffffffffffffffffffffffffffffffffffffffffffffffffffffffff821415615e5957615e58615e9c565b5b600182019050919050565b6000615e6f82615e80565b9050919050565b6000819050919050565b6000615e8b82615f3a565b9050919050565b6000819050919050565b7f4e487b7100000000000000000000000000000000000000000000000000000000600052601160045260246000fd5b7f4e487b7100000000000000000000000000000000000000000000000000000000600052602260045260246000fd5b7f4e487b7100000000000000000000000000000000000000000000000000000000600052604160045260246000fd5b6000601f19601f8301169050919050565b60008160601b9050919050565b615f5081615d29565b8114615f5b57600080fd5b50565b615f6781615d3b565b8114615f7257600080fd5b50565b615f7e81615d47565b8114615f8957600080fd5b50565b615f9581615d51565b8114615fa057600080fd5b50565b615fac81615d9d565b8114615fb757600080fd5b5056fea2646970667358221220d95d0f122b709ba0dd1e24a23f55a2f434107f23727542e35198d71d2788280564736f6c63430008000033608060405234801561001057600080fd5b5060006100216100c460201b60201c565b9050806000806101000a81548173ffffffffffffffffffffffffffffffffffffffff021916908373ffffffffffffffffffffffffffffffffffffffff1602179055508073ffffffffffffffffffffffffffffffffffffffff16600073ffffffffffffffffffffffffffffffffffffffff167f8be0079c531659141344cd1fd0a4f28419497f9722a3daafe3b4186f6b6457e060405160405180910390a3506100cc565b600033905090565b610ef0806100db6000396000f3fe608060405234801561001057600080fd5b50600436106100575760003560e01c80631c5f6d5d1461005c578063715018a61461008c57806376670032146100965780638da5cb5b146100b2578063f2fde38b146100d0575b600080fd5b6100766004803603810190610071919061098a565b6100ec565b6040516100839190610c5f565b60405180910390f35b61009461027f565b005b6100b060048036038101906100ab919061090f565b6103b9565b005b6100ba6105b3565b6040516100c79190610c44565b60405180910390f35b6100ea60048036038101906100e591906108e6565b6105dc565b005b60006100f6610785565b73ffffffffffffffffffffffffffffffffffffffff166101146105b3565b73ffffffffffffffffffffffffffffffffffffffff161461016a576040517f08c379a000000000000000000000000000000000000000000000000000000000815260040161016190610cba565b60405180910390fd5b610174600161078d565b428661018060016107a3565b60405160200161019293929190610c07565b6040516020818303038152906040528051906020012090506000600260008381526020019081526020016000209050868160000160006101000a81548173ffffffffffffffffffffffffffffffffffffffff021916908373ffffffffffffffffffffffffffffffffffffffff16021790555060018160000160146101000a81548160ff021916908315150217905550858160010181905550848160020190805190602001906102429291906107b1565b508381600301908051906020019061025b9291906107b1565b50828160040190805190602001906102749291906107b1565b505095945050505050565b610287610785565b73ffffffffffffffffffffffffffffffffffffffff166102a56105b3565b73ffffffffffffffffffffffffffffffffffffffff16146102fb576040517f08c379a00000000000000000000000000000000000000000000000000000000081526004016102f290610cba565b60405180910390fd5b600073ffffffffffffffffffffffffffffffffffffffff1660008054906101000a900473ffffffffffffffffffffffffffffffffffffffff1673ffffffffffffffffffffffffffffffffffffffff167f8be0079c531659141344cd1fd0a4f28419497f9722a3daafe3b4186f6b6457e060405160405180910390a360008060006101000a81548173ffffffffffffffffffffffffffffffffffffffff021916908373ffffffffffffffffffffffffffffffffffffffff160217905550565b6103c1610785565b73ffffffffffffffffffffffffffffffffffffffff166103df6105b3565b73ffffffffffffffffffffffffffffffffffffffff1614610435576040517f08c379a000000000000000000000000000000000000000000000000000000000815260040161042c90610cba565b60405180910390fd5b83838360006002600083815260200190815260200160002090508373ffffffffffffffffffffffffffffffffffffffff168160000160009054906101000a900473ffffffffffffffffffffffffffffffffffffffff1673ffffffffffffffffffffffffffffffffffffffff161480156104b15750828160010154145b6104f0576040517f08c379a00000000000000000000000000000000000000000000000000000000081526004016104e790610cda565b60405180910390fd5b8560006002600083815260200190815260200160002090508060000160149054906101000a900460ff16610559576040517f08c379a000000000000000000000000000000000000000000000000000000000815260040161055090610c9a565b60405180910390fd5b6000600260008a8152602001908152602001600020905060008160000160146101000a81548160ff021916908315150217905550878160050190805190602001906105a59291906107b1565b505050505050505050505050565b60008060009054906101000a900473ffffffffffffffffffffffffffffffffffffffff16905090565b6105e4610785565b73ffffffffffffffffffffffffffffffffffffffff166106026105b3565b73ffffffffffffffffffffffffffffffffffffffff1614610658576040517f08c379a000000000000000000000000000000000000000000000000000000000815260040161064f90610cba565b60405180910390fd5b600073ffffffffffffffffffffffffffffffffffffffff168173ffffffffffffffffffffffffffffffffffffffff1614156106c8576040517f08c379a00000000000000000000000000000000000000000000000000000000081526004016106bf90610c7a565b60405180910390fd5b8073ffffffffffffffffffffffffffffffffffffffff1660008054906101000a900473ffffffffffffffffffffffffffffffffffffffff1673ffffffffffffffffffffffffffffffffffffffff167f8be0079c531659141344cd1fd0a4f28419497f9722a3daafe3b4186f6b6457e060405160405180910390a3806000806101000a81548173ffffffffffffffffffffffffffffffffffffffff021916908373ffffffffffffffffffffffffffffffffffffffff16021790555050565b600033905090565b6001816000016000828254019250508190555050565b600081600001549050919050565b8280546107bd90610dc1565b90600052602060002090601f0160209004810192826107df5760008555610826565b82601f106107f857805160ff1916838001178555610826565b82800160010185558215610826579182015b8281111561082557825182559160200191906001019061080a565b5b5090506108339190610837565b5090565b5b80821115610850576000816000905550600101610838565b5090565b600061086761086284610d2b565b610cfa565b90508281526020810184848401111561087f57600080fd5b61088a848285610db2565b509392505050565b6000813590506108a181610e8c565b92915050565b6000813590506108b681610ea3565b92915050565b600082601f8301126108cd57600080fd5b81356108dd848260208601610854565b91505092915050565b6000602082840312156108f857600080fd5b600061090684828501610892565b91505092915050565b6000806000806080858703121561092557600080fd5b600061093387828801610892565b9450506020610944878288016108a7565b9350506040610955878288016108a7565b925050606085013567ffffffffffffffff81111561097257600080fd5b61097e878288016108bc565b91505092959194509250565b600080600080600060a086880312156109a257600080fd5b60006109b088828901610892565b95505060206109c1888289016108a7565b945050604086013567ffffffffffffffff8111156109de57600080fd5b6109ea888289016108bc565b935050606086013567ffffffffffffffff811115610a0757600080fd5b610a13888289016108bc565b925050608086013567ffffffffffffffff811115610a3057600080fd5b610a3c888289016108bc565b9150509295509295909350565b610a5281610d6c565b82525050565b610a69610a6482610d6c565b610df3565b82525050565b610a7881610d7e565b82525050565b6000610a8b602683610d5b565b91507f4f776e61626c653a206e6577206f776e657220697320746865207a65726f206160008301527f64647265737300000000000000000000000000000000000000000000000000006020830152604082019050919050565b6000610af1603183610d5b565b91507f426164676551756572794f7261636c653a2071756572792068617320616c726560008301527f616479206265656e207265736f6c7665640000000000000000000000000000006020830152604082019050919050565b6000610b57602083610d5b565b91507f4f776e61626c653a2063616c6c6572206973206e6f7420746865206f776e65726000830152602082019050919050565b6000610b97603083610d5b565b91507f426164676551756572794f7261636c653a20756e65787065637465642072657160008301527f75657374206964656e74696669657273000000000000000000000000000000006020830152604082019050919050565b610c01610bfc82610da8565b610e17565b82525050565b6000610c138286610bf0565b602082019150610c238285610a58565b601482019150610c338284610bf0565b602082019150819050949350505050565b6000602082019050610c596000830184610a49565b92915050565b6000602082019050610c746000830184610a6f565b92915050565b60006020820190508181036000830152610c9381610a7e565b9050919050565b60006020820190508181036000830152610cb381610ae4565b9050919050565b60006020820190508181036000830152610cd381610b4a565b9050919050565b60006020820190508181036000830152610cf381610b8a565b9050919050565b6000604051905081810181811067ffffffffffffffff82111715610d2157610d20610e50565b5b8060405250919050565b600067ffffffffffffffff821115610d4657610d45610e50565b5b601f19601f8301169050602081019050919050565b600082825260208201905092915050565b6000610d7782610d88565b9050919050565b6000819050919050565b600073ffffffffffffffffffffffffffffffffffffffff82169050919050565b6000819050919050565b82818337600083830152505050565b60006002820490506001821680610dd957607f821691505b60208210811415610ded57610dec610e21565b5b50919050565b6000610dfe82610e05565b9050919050565b6000610e1082610e7f565b9050919050565b6000819050919050565b7f4e487b7100000000000000000000000000000000000000000000000000000000600052602260045260246000fd5b7f4e487b7100000000000000000000000000000000000000000000000000000000600052604160045260246000fd5b60008160601b9050919050565b610e9581610d6c565b8114610ea057600080fd5b50565b610eac81610d7e565b8114610eb757600080fd5b5056fea264697066735822122016c2a1726740d33b4c9ddbd06b30ccd0cbfac16f87018a6a5003d2cd48a8150664736f6c63430008000033",
  "immutableReferences": {},
  "source": "// contracts/BadgeTokenFactory.sol\n// SPDX-License-Identifier: MIT\npragma solidity ^0.8.0;\n\nimport \"../node_modules/@openzeppelin/contracts/utils/Counters.sol\";\nimport \"./BadgeDefinitionFactory.sol\";\nimport \"./BadgeQueryOracle.sol\";\n\n/**\n * @title BadgeTokenFactory\n * @author Geoffrey Garcia\n * @notice Contract to use to mint and to transfer (if applicable based on associated BadgeDefinition) BadgeToken that are ERC721 tokens.\n * @dev The BadgeTokenFactory contract provides basic structures, functions & modifiers that allow to manage BadgeToken as ERC721 token.\n */\ncontract BadgeTokenFactory is BadgeFactory {\n\n    using Counters for Counters.Counter;\n\n    /**\n    * @notice Event emitted to request for a query to be run.\n    * @dev Event emitted to request for a query to be run for BadgeToken minting.\n    * @param _requestID The ID of the query.\n    * @param _caller The Ethereum address which has requested for the right to mint the token.\n    * @param _indexer The service indexing the data (possible values: \"thegraph, \"covalent\").\n    * @param _protocol The set/subgraph on the indexer to use (possible values: \"uniswap\", \"compound\" ,\"aave\" ,\"ethereum\").\n    * @param _query The query to run.\n    */\n    event QueryRequest(bytes32 _requestID, address _caller, string _indexer, string _protocol, string _query);\n\n    /**\n    * @notice Event emitted after the query and its result have been record into the blockchain.\n    * @dev Event emitted fter the query and its result have been record into the blockchain for BadgeToken minting.\n    * @param _requestID The ID of the query.\n    * @param _queryResult The result of the query.\n    */\n    event QueryResultReceived(bytes32 _requestID, string _queryResult);\n\n    /**\n    * @notice Event emitted when a BadgeToken is ready to be minted.\n    * @dev Event emitted when a BadgeToken is ready to be minted.\n    * @param _caller The Ethereum address which has requested for the right to mint the token.\n    * @param _badgeDefinitionId The ID of BadgeDefinition associated to this BadgeToken.\n    */\n    event BadgeTokenReady(address _caller, uint _badgeDefinitionId);\n\n    /**\n    * @notice Event emitted after a BadgeToken minting.\n    * @dev Event emitted after a BadgeToken minting.\n    * @param _badgeTokenId The ID of the BadgeToken.\n    * @param _originalOwner The Ethereum address of the user that has minted the token.\n    */\n    event NewBadgeToken(uint _badgeTokenId, address _originalOwner);\n\n    // Badge token structure\n    struct BadgeToken {\n        uint badgeDefinitionId;                                 // the ID of BadgeDefinition associated to this BadgeToken\n        address originalOwner;                                  // the Ethereum address of the user that has minted the token\n        string[maxNumberOfAttributionConditions] specialValues; // the special value associated with this badge (optional)\n    }\n\n    // Badge token ownership structure\n    struct BadgeOwnership {\n        bool isPopulated;                          // true if the user has already owned any badge\n        mapping(uint => uint) definitionToIndex;   // the BadgeDefinition referring to an index\n        mapping(uint => uint) indexToToken;        // the index referring to an BadgeToken\n        uint maxIndex;                             // the number of tokens ever owned\n        address previousRank;                      // the previous account in the token leader board ('0' if leader)\n        address nextRank;                          // the next account in the token leader board ('0' if last)\n        uint isThreshold;                          // set with the threshold value if applicable ('-1' if not)\n    }\n\n    // Pending minting structure\n    struct PendingMinting {\n        address caller;                                // the Ethereum address which has requested for the query result\n        uint badgeDefinitionId;                        // the ID of BadgeDefinition associated to the BadgeToken the user want to mint\n        uint numberOfConditions;                       // the number of conditions that have to be evaluated through as many queries\n        mapping (uint => bytes32) _queryIndex;            // the IDs of the queries\n        mapping (bytes32 => bool) _pendingQueryStatus;    // the current status of the queries (true if pending)\n        mapping (bytes32 => string) _queryResult;         // the results of the queries (usable only if associated _pendingQueryStatus value is false)\n        mapping (bytes32 => string) _evaluationOperator;  // the operator allowing to compare the query return\n        mapping (bytes32 => string) _evaluationCondition; // the value to compare with the query result\n    }\n\n    // Storage of the badge tokens\n    BadgeToken[] private _badgeTokens;                       // BadgeToken storage\n    address _boardLeader;                                    // The leader is the account owning the most tokens\n    address _boardLast;                                      // The last is the account owning the least tokens\n    mapping(uint => address) private _boardThresholds;       // List of thresholds of the leaderboard of owned tokens\n    mapping(address => BadgeOwnership) private _ownedBadges; // List of BadgeToken IDs per owner per BadgeDefinition\n    string badgeTokenSymbol = \"BTO\";                         // Symbol of the ERC721 tokens of the BadgeToken\n\n    // Storage for the badge minting\n    Counters.Counter private _mintingNonce;                                     // a nonce injected to build the ID of the condition group to mint the badge\n    mapping(bytes32 => PendingMinting) private _pendingMintings;                // the list of pending badge mintings\n    mapping(address => mapping(uint => bytes32)) private _pendingMintingBadges; // List of pending badge mintings per owner per BadgeDefinition\n    mapping(bytes32 => bytes32) private _pendingQueries;                        // the list of pending queries\n\n    // Reference to the BadgeDefinitionFactory contract allowing to manage BadgeDefinition\n    BadgeDefinitionFactory badgeDefinitionFactory;\n    // Reference to the BadgeQueryOracle contract allowing to run query on off-chain ressources\n    BadgeQueryOracle badgeQueryOracle;\n\n    /**\n    * @dev See {ERC721-constructor}.\n    * @param _badgeDefinitionFactoryAddress The Ethereum address of the BadgeDefinitionFactory contract allowing to manage BadgeDefinition.\n    */\n    constructor(address _badgeDefinitionFactoryAddress) BadgeFactory(\"BadgeToken\", badgeTokenSymbol) {\n        // Linking this contract with the already deployed one BadgeDefinitionFactory\n        badgeDefinitionFactory = BadgeDefinitionFactory(_badgeDefinitionFactoryAddress);\n        // Linking this contract with a freshly instantiated BadgeQueryOracle\n        badgeQueryOracle = new BadgeQueryOracle();\n    }\n\n    /**\n    * @dev Throws if the badge is already owned.\n    * @param _badgeDefinitionId The ID of BadgeDefinition associated to this BadgeToken.\n    * @param _to The Ethereum address of the user that could receive the token.\n    */\n    modifier notOwned(uint _badgeDefinitionId, address _to) {\n        require(_ownedBadges[_to].definitionToIndex[_badgeDefinitionId] == 0, string(abi.encodePacked(badgeTokenSymbol, \": already owned\")));\n        //TODO: check orignalOwner instead?\n        _;\n    }\n\n    /**\n    * @notice Function to mint a BadgeToken as ERC721 tokens.\n    * @dev Creates & store a BadgeToken.\n    * @param _badgeDefinitionId The ID of BadgeDefinition associated to this BadgeToken.\n    */\n    function requestBadgeTokenMinting(uint _badgeDefinitionId) external {\n        requestBadgeTokenDroping(_badgeDefinitionId, _msgSender());\n    }\n\n    /**\n    * @notice Function to mint a BadgeToken as ERC721 tokens.\n    * @dev Creates & store a BadgeToken.\n    * @param _badgeDefinitionId The ID of BadgeDefinition associated to this BadgeToken.\n    * @param _to The Ethereum address of the user that could receive the token.\n    */\n    function requestBadgeTokenDroping(uint _badgeDefinitionId, address _to) notOwned(_badgeDefinitionId, _to) public {\n        require(_pendingMintingBadges[_to][_badgeDefinitionId] == 0, string(abi.encodePacked(badgeTokenSymbol, \": in minting process\")));\n        // Creating for the penting minting\n        _mintingNonce.increment();\n        bytes32 badgeConditionGroupID = keccak256(abi.encodePacked(block.timestamp, _to, _mintingNonce.current()));\n\n        // Add the badge minting to the ones asked by the user\n        _pendingMintingBadges[_to][_badgeDefinitionId] = badgeConditionGroupID;\n\n        // Storing for the penting minting\n        PendingMinting storage pendingMinting = _pendingMintings[badgeConditionGroupID];\n        pendingMinting.caller = _to;\n\n        // Get the BadgeAttributionCondition list associated to this BadgeDefinition\n        BadgeAttributionCondition[maxNumberOfAttributionConditions] memory badgeAttributionCondition;\n        uint numberOfConditions;\n        // uint numberOfConditions = 0;\n        (numberOfConditions, badgeAttributionCondition) = badgeDefinitionFactory.getBadgeDefinitionAttributionCondition(_badgeDefinitionId);\n        pendingMinting.numberOfConditions = numberOfConditions;\n\n        // Check for every condition in the list\n        for(uint i=0; i < numberOfConditions; i++){\n            // Ask the Oracle to obtain the result of the query\n            bytes32 requestID = badgeQueryOracle.runQuery(_to, badgeConditionGroupID, badgeAttributionCondition[i].indexer, badgeAttributionCondition[i].protocol, badgeAttributionCondition[i].query);\n            \n            // Asking for the query to be run\n            emit QueryRequest(requestID, _to, badgeAttributionCondition[i].indexer, badgeAttributionCondition[i].protocol, badgeAttributionCondition[i].query);\n            \n            // Store the references & status of the query\n            _pendingQueries[requestID] = badgeConditionGroupID;\n            pendingMinting._queryIndex[i] = requestID;\n            pendingMinting._pendingQueryStatus[requestID] = true;\n            pendingMinting._evaluationOperator[requestID] = badgeAttributionCondition[i].operator;\n            pendingMinting._evaluationCondition[requestID] = badgeAttributionCondition[i].condition;\n        }\n    }\n\n    /**\n    * @notice Function to get the result of a query.\n    * @dev Store the result of the query then ask for the Oracle to write it into the blockchain.\n    * @param _requestID The ID of the query.\n    * @param _queryResult The result of the query.\n    */\n    function updateBadgeTokenMinting(bytes32 _requestID, string memory _queryResult) external {\n        bytes32 badgeConditionGroupID = _pendingQueries[_requestID];\n        // string memory requestIDString = _bytes32ToString(_requestID);\n        // require(badgeConditionGroupID != 0, string(abi.encodePacked(badgeTokenSymbol, \": wrong request ID(\", requestIDString, \") badgeConditionGroupID:\", badgeConditionGroupID)));\n        require(badgeConditionGroupID != 0, string(abi.encodePacked(badgeTokenSymbol, \": wrong request ID(\", _requestID, \")\")));\n\n        // Storing the result\n        PendingMinting storage pendingMinting = _pendingMintings[badgeConditionGroupID];\n        pendingMinting._pendingQueryStatus[_requestID] = false;\n        pendingMinting._queryResult[_requestID] = _queryResult;\n\n        // Sending the result to the Oracle\n        badgeQueryOracle.recordQueryResult(pendingMinting.caller, badgeConditionGroupID, _requestID, _queryResult);\n\n        // Telling the query has been recorded\n        emit QueryResultReceived(_requestID, _queryResult);\n\n        // Evaluating overall minting process status\n        bool evaluationResult = false;\n        for(uint i=0; (i < pendingMinting.numberOfConditions) && (evaluationResult == false); i++){\n            // Retrieving another query ID\n            bytes32 requestID = pendingMinting._queryIndex[i];\n            \n            // Evaluate if the condition is met\n            evaluationResult = pendingMinting._pendingQueryStatus[requestID];\n        }\n\n        // Emetting a signal if all the queries have been run\n        if(evaluationResult == false){\n            emit BadgeTokenReady(pendingMinting.caller, pendingMinting.badgeDefinitionId);\n        }\n    }\n\n    /**\n    * @notice Function to mint a BadgeToken as ERC721 tokens.\n    * @dev Creates & store a BadgeToken.\n    * @param _badgeDefinitionId The ID of BadgeDefinition associated to this BadgeToken.\n    * @return _badgeTokenId The ID of the new BadgeToken.\n    */\n    function mintBadgeToken(uint _badgeDefinitionId) external returns (uint _badgeTokenId) {\n        // Returning the ID of the new BadgeToken\n        return dropBadgeToken(_badgeDefinitionId, _msgSender());\n    }\n\n    /**\n    * @notice Function to drop a BadgeToken as ERC721 tokens.\n    * @dev Creates & store a BadgeToken.\n    * @param _badgeDefinitionId The ID of BadgeDefinition associated to this BadgeToken.\n    * @param _to The Ethereum address of the user that could receive the token.\n    * @return _badgeTokenId The ID of the new BadgeToken.\n    */\n    function dropBadgeToken(uint _badgeDefinitionId, address _to) notOwned(_badgeDefinitionId, _to) public returns (uint _badgeTokenId) {\n        // Identifying the badge the user want to mint\n        bytes32 badgeConditionGroupID = _pendingMintingBadges[_to][_badgeDefinitionId];\n        PendingMinting storage pendingMinting = _pendingMintings[badgeConditionGroupID];\n        require(_to == pendingMinting.caller, string(abi.encodePacked(badgeTokenSymbol, \": not the right user\")));\n\n        string[maxNumberOfAttributionConditions] memory _specialValues;\n        require(_assessAttributionCondition(pendingMinting, _specialValues), string(abi.encodePacked(badgeTokenSymbol, \": not fullfilling the conditions\")));\n        \n        // Storing the BadgeToken\n        _badgeTokens.push(BadgeToken({ badgeDefinitionId: _badgeDefinitionId, originalOwner: _to, specialValues:  _specialValues}));\n        \n        // Getting the ID of the new BadgeToken\n        uint badgeTokenId = _badgeTokens.length;\n\n        // Add the badge to the ones owned by the user\n        _setOwnership(_to, badgeTokenId);\n\n        // Minting the BadgeToken\n        _safeMint(_to, badgeTokenId);\n\n        // Removing the stored pending badge minting\n        for(uint i=0; i < pendingMinting.numberOfConditions; i++){\n            bytes32 requestID = pendingMinting._queryIndex[i];\n            delete _pendingQueries[requestID];\n            delete pendingMinting._pendingQueryStatus[requestID];\n            delete pendingMinting._queryResult[requestID];\n            delete pendingMinting._evaluationOperator[requestID];\n            delete pendingMinting._evaluationCondition[requestID];\n            delete pendingMinting._queryIndex[i];\n        }\n        delete _pendingMintingBadges[_to][_badgeDefinitionId];\n        delete _pendingMintings[badgeConditionGroupID];\n\n        // Emit the appropriate event\n        emit NewBadgeToken(badgeTokenId, _to);\n\n        return badgeTokenId;\n    }\n\n    /**\n    * @notice Function to test if the badge produced using a BadgeDefinition can be mint.\n    * @dev Check if the conditions to mint the badge are met.\n    * @param _pendingMinting The pending badge minting structure.\n    * @param _specialValues The special values to be stored (optional).\n    * @return _evaluationResult The result of the test.\n    */ \n    function _assessAttributionCondition(PendingMinting storage _pendingMinting, string[maxNumberOfAttributionConditions] memory _specialValues) private view returns (bool _evaluationResult) {\n        _evaluationResult = true;\n\n        // Check for every condition in the list\n        for(uint i=0; (i < _pendingMinting.numberOfConditions) && (_evaluationResult == true); i++){\n            // Retrieving the query ID\n            bytes32 requestID = _pendingMinting._queryIndex[i];\n            \n            // Evaluate if the condition is met\n            _evaluationResult = _evaluateCondition(_pendingMinting._queryResult[requestID], _pendingMinting._evaluationOperator[requestID], _pendingMinting._evaluationCondition[requestID], _specialValues[i]);\n        } \n\n        return _evaluationResult;\n    }\n\n    /**\n    * @notice Function to retreive all badges (and associated IDs of BadgeDefinition) the user currently owns.\n    * @dev Return two lists of IDs correlated by their index.\n    * @param _owner The Ethereum address of the user.\n    * @return _totalNumberOfBadges The size of the returned lists.\n    * @return _badgeDefinitionIds The ID of BadgeDefinition associated to the BadgeToken the user owns.\n    * @return _badgeTokenIds The ID of BadgeToken the user owns.\n    */\n    function getAllOwnedBadges(address _owner) external view returns (uint _totalNumberOfBadges, uint[] memory _badgeDefinitionIds, uint[] memory _badgeTokenIds) {\n        // Looking for a BadgeToken owned by this user\n        if(_ownedBadges[_owner].isPopulated == true){\n            uint ownedToken;\n            _badgeDefinitionIds = new uint[](this.balanceOf(_owner));\n            _badgeTokenIds = new uint[](this.balanceOf(_owner));\n            for(uint i=1; i <= _ownedBadges[_owner].maxIndex; i++){\n                ownedToken = _ownedBadges[_owner].indexToToken[i];\n                // Only concidering still owned tokens\n                if(ownedToken != 0){\n                    _badgeDefinitionIds[_totalNumberOfBadges] = _badgeTokens[ownedToken - 1].badgeDefinitionId;\n                    _badgeTokenIds[_totalNumberOfBadges] = ownedToken;\n                    (_totalNumberOfBadges)++;\n                }\n            } \n        } \n\n        return (_totalNumberOfBadges, _badgeDefinitionIds, _badgeTokenIds);\n    }\n\n    /**\n    * @notice Function to test if the badge produced using a BadgeDefinition can be mint.\n    * @dev Check if the conditions to mint the badge are met.\n    * @param _owner The Ethereum address of the user.\n    * @param _badgeDefinitionId The ID of BadgeDefinition.\n    * @return _evaluationResult The result of the test.\n    */\n    function doesOwnBadgeFromGivenDefinition(address _owner, uint _badgeDefinitionId) external view returns (bool _evaluationResult) {\n        _evaluationResult = true;\n\n        // Check for a BadgeToken potentially owned by this user associated to the BadgeDefinition\n        uint tokenIndex = _ownedBadges[_owner].definitionToIndex[_badgeDefinitionId];\n        if(tokenIndex == 0){\n            _evaluationResult = false;\n        } \n\n        return _evaluationResult;\n    }\n\n    /**\n    * @notice Function to transfer a token (if applicable).\n    * @dev Transfers `tokenId` from `from` to `to`.\n    * @param from The Ethereum address of the user that own the token.\n    * @param to The Ethereum address of the user that could receive the token.\n    * @param tokenId The ID of the BadgeToken.\n    */\n    function _transfer(address from, address to, uint256 tokenId) internal override {\n        uint tokenIndex = tokenId - 1;\n\n        // Check if the token can be transfered\n        require(badgeDefinitionFactory.isBadgeTransferable(_badgeTokens[tokenIndex].badgeDefinitionId), string(abi.encodePacked(badgeTokenSymbol, \": nontransferable\", _badgeTokens[tokenIndex].originalOwner)));\n\n        // Creating the new ownership\n        _setOwnership(to, tokenId);\n\n        // Removing the old ownership\n        uint oldIndex = _ownedBadges[from].definitionToIndex[_badgeTokens[tokenIndex].badgeDefinitionId];\n        _ownedBadges[from].definitionToIndex[_badgeTokens[tokenIndex].badgeDefinitionId] = 0;\n        _ownedBadges[from].indexToToken[oldIndex] = 0;\n\n        // Updating the leaderboard (WIP)\n        //_updateLeaderboard(from);\n\n        // Transfer the token (if applicable)\n        super._transfer(from, to, tokenId);\n    }\n\n    /**\n    * @notice Function to define a token ownership.\n    * @dev The address `_owner` become the owner of the token `_tokenId`.\n    * @param _owner The Ethereum address of the user.\n    * @param _tokenId The ID of the BadgeToken.\n    */\n    function _setOwnership(address _owner, uint _tokenId) internal {\n        // Creating the ownership\n        if(_ownedBadges[_owner].isPopulated == false){\n            _ownedBadges[_owner].isPopulated = true;\n        }\n        (_ownedBadges[_owner].maxIndex)++;\n        _ownedBadges[_owner].definitionToIndex[_badgeTokens[_tokenId - 1].badgeDefinitionId] = _ownedBadges[_owner].maxIndex;\n        _ownedBadges[_owner].indexToToken[_ownedBadges[_owner].maxIndex] = _tokenId;\n\n        // Updating the leaderboard (WIP)\n        //_updateLeaderboard(_owner);\n    }\n\n    /**\n    * @notice Function to define a token ownership.\n    * @dev The address `_owner` become the owner of the token `_tokenId`.\n    * @param _owner The Ethereum address of the user.\n    */\n    function _updateLeaderboard(address _owner) internal {\n        uint balance = balanceOf(_owner);\n\n        // Removing old links (if applicable)\n        if((_ownedBadges[_owner].previousRank != address(0)) || (_ownedBadges[_owner].nextRank != address(0))){ \n            _ownedBadges[_ownedBadges[_owner].previousRank].nextRank = _ownedBadges[_owner].nextRank;\n            _ownedBadges[_ownedBadges[_owner].nextRank].previousRank = _ownedBadges[_owner].previousRank;\n            if(_ownedBadges[_owner].isThreshold != 0){\n                // Updating threshold indexes\n                _ownedBadges[_ownedBadges[_owner].nextRank].isThreshold = _ownedBadges[_owner].isThreshold;\n            }\n        } \n\n        // Identify new rank\n        address previous;\n        address next;\n        if(balance == 0){\n            // Taking the last rank\n            previous = _boardLast;\n            next = address(0);\n            _boardLast = _owner;\n        } else {\n            // Locating next & previous rank\n            next = _boardThresholds[balance - 1];\n            if(next == address(0)){\n                // Taking the last rank\n                previous = _boardLast;\n                _boardLast = _owner;\n            } else {\n                previous = _ownedBadges[next].previousRank;\n            } \n            if(previous == address(0)){\n                // Taking the lead\n                _boardLeader = _owner;\n                _ownedBadges[_owner].isThreshold = balance;\n                _boardThresholds[balance] = _owner;\n            }\n        }\n\n        // Updating new links\n        _ownedBadges[_owner].previousRank = previous;\n        _ownedBadges[_owner].nextRank = next;\n\n        // Updathing thresholds\n        // TODO\n    }\n\n    /**\n    * @notice Function to get the URI associated to a token.\n    * @dev Returns the Uniform Resource Identifier (URI) for `tokenId` token.\n    * @param tokenId The ID of the BadgeToken.\n    * @return The result URI associated to the token.\n    */\n    function tokenURI(uint256 tokenId) public view override returns (string memory) {\n        require(_exists(tokenId), \"ERC721Metadata: nonexistent token\");\n\n        uint tokenIndex = tokenId - 1;\n        \n        string memory URI = badgeDefinitionFactory.tokenURI(_badgeTokens[tokenIndex].badgeDefinitionId);\n        return bytes(URI).length > 0\n            ? string(URI)\n            : '';\n    }\n}",
  "sourcePath": "/home/cryptomarabout/Documents/Blacklist/EtherScore/contracts/contracts/BadgeTokenFactory.sol",
  "compiler": {
    "name": "solc",
    "version": "0.8.0+commit.c7dfd78e.Emscripten.clang"
  },
  "schemaVersion": "3.4.1",
  "updatedAt": "2021-08-14T19:19:17.247Z",
  "networkType": "ethereum",
  "devdoc": {
    "author": "Geoffrey Garcia",
    "details": "The BadgeTokenFactory contract provides basic structures, functions & modifiers that allow to manage BadgeToken as ERC721 token.",
    "events": {
      "BadgeTokenReady(address,uint256)": {
        "details": "Event emitted when a BadgeToken is ready to be minted.",
        "params": {
          "_badgeDefinitionId": "The ID of BadgeDefinition associated to this BadgeToken.",
          "_caller": "The Ethereum address which has requested for the right to mint the token."
        }
      },
      "NewBadgeToken(uint256,address)": {
        "details": "Event emitted after a BadgeToken minting.",
        "params": {
          "_badgeTokenId": "The ID of the BadgeToken.",
          "_originalOwner": "The Ethereum address of the user that has minted the token."
        }
      },
      "QueryRequest(bytes32,address,string,string,string)": {
        "details": "Event emitted to request for a query to be run for BadgeToken minting.",
        "params": {
          "_caller": "The Ethereum address which has requested for the right to mint the token.",
          "_indexer": "The service indexing the data (possible values: \"thegraph, \"covalent\").",
          "_protocol": "The set/subgraph on the indexer to use (possible values: \"uniswap\", \"compound\" ,\"aave\" ,\"ethereum\").",
          "_query": "The query to run.",
          "_requestID": "The ID of the query."
        }
      },
      "QueryResultReceived(bytes32,string)": {
        "details": "Event emitted fter the query and its result have been record into the blockchain for BadgeToken minting.",
        "params": {
          "_queryResult": "The result of the query.",
          "_requestID": "The ID of the query."
        }
      }
    },
    "kind": "dev",
    "methods": {
      "approve(address,uint256)": {
        "details": "See {IERC721-approve}."
      },
      "balanceOf(address)": {
        "details": "See {IERC721-balanceOf}."
      },
      "constructor": {
        "details": "See {ERC721-constructor}.",
        "params": {
          "_badgeDefinitionFactoryAddress": "The Ethereum address of the BadgeDefinitionFactory contract allowing to manage BadgeDefinition."
        }
      },
      "doesOwnBadgeFromGivenDefinition(address,uint256)": {
        "details": "Check if the conditions to mint the badge are met.",
        "params": {
          "_badgeDefinitionId": "The ID of BadgeDefinition.",
          "_owner": "The Ethereum address of the user."
        },
        "returns": {
          "_evaluationResult": "The result of the test."
        }
      },
      "dropBadgeToken(uint256,address)": {
        "details": "Creates & store a BadgeToken.",
        "params": {
          "_badgeDefinitionId": "The ID of BadgeDefinition associated to this BadgeToken.",
          "_to": "The Ethereum address of the user that could receive the token."
        },
        "returns": {
          "_badgeTokenId": "The ID of the new BadgeToken."
        }
      },
      "getAllOwnedBadges(address)": {
        "details": "Return two lists of IDs correlated by their index.",
        "params": {
          "_owner": "The Ethereum address of the user."
        },
        "returns": {
          "_badgeDefinitionIds": "The ID of BadgeDefinition associated to the BadgeToken the user owns.",
          "_badgeTokenIds": "The ID of BadgeToken the user owns.",
          "_totalNumberOfBadges": "The size of the returned lists."
        }
      },
      "getApproved(uint256)": {
        "details": "See {IERC721-getApproved}."
      },
      "isApprovedForAll(address,address)": {
        "details": "See {IERC721-isApprovedForAll}."
      },
      "mintBadgeToken(uint256)": {
        "details": "Creates & store a BadgeToken.",
        "params": {
          "_badgeDefinitionId": "The ID of BadgeDefinition associated to this BadgeToken."
        },
        "returns": {
          "_badgeTokenId": "The ID of the new BadgeToken."
        }
      },
      "name()": {
        "details": "See {IERC721Metadata-name}."
      },
      "owner()": {
        "details": "Returns the address of the current owner."
      },
      "ownerOf(uint256)": {
        "details": "See {IERC721-ownerOf}."
      },
      "renounceOwnership()": {
        "details": "Leaves the contract without owner. It will not be possible to call `onlyOwner` functions anymore. Can only be called by the current owner. NOTE: Renouncing ownership will leave the contract without an owner, thereby removing any functionality that is only available to the owner."
      },
      "requestBadgeTokenDroping(uint256,address)": {
        "details": "Creates & store a BadgeToken.",
        "params": {
          "_badgeDefinitionId": "The ID of BadgeDefinition associated to this BadgeToken.",
          "_to": "The Ethereum address of the user that could receive the token."
        }
      },
      "requestBadgeTokenMinting(uint256)": {
        "details": "Creates & store a BadgeToken.",
        "params": {
          "_badgeDefinitionId": "The ID of BadgeDefinition associated to this BadgeToken."
        }
      },
      "safeTransferFrom(address,address,uint256)": {
        "details": "See {IERC721-safeTransferFrom}."
      },
      "safeTransferFrom(address,address,uint256,bytes)": {
        "details": "See {IERC721-safeTransferFrom}."
      },
      "setApprovalForAll(address,bool)": {
        "details": "See {IERC721-setApprovalForAll}."
      },
      "supportsInterface(bytes4)": {
        "details": "See {IERC165-supportsInterface}."
      },
      "symbol()": {
        "details": "See {IERC721Metadata-symbol}."
      },
      "tokenByIndex(uint256)": {
        "details": "See {IERC721Enumerable-tokenByIndex}."
      },
      "tokenOfOwnerByIndex(address,uint256)": {
        "details": "See {IERC721Enumerable-tokenOfOwnerByIndex}."
      },
      "tokenURI(uint256)": {
        "details": "Returns the Uniform Resource Identifier (URI) for `tokenId` token.",
        "params": {
          "tokenId": "The ID of the BadgeToken."
        },
        "returns": {
          "_0": "The result URI associated to the token."
        }
      },
      "totalSupply()": {
        "details": "See {IERC721Enumerable-totalSupply}."
      },
      "transferFrom(address,address,uint256)": {
        "details": "See {IERC721-transferFrom}."
      },
      "transferOwnership(address)": {
        "details": "Transfers ownership of the contract to a new account (`newOwner`). Can only be called by the current owner."
      },
      "updateBadgeTokenMinting(bytes32,string)": {
        "details": "Store the result of the query then ask for the Oracle to write it into the blockchain.",
        "params": {
          "_queryResult": "The result of the query.",
          "_requestID": "The ID of the query."
        }
      }
    },
    "title": "BadgeTokenFactory",
    "version": 1
  },
  "userdoc": {
    "events": {
      "BadgeTokenReady(address,uint256)": {
        "notice": "Event emitted when a BadgeToken is ready to be minted."
      },
      "NewBadgeToken(uint256,address)": {
        "notice": "Event emitted after a BadgeToken minting."
      },
      "QueryRequest(bytes32,address,string,string,string)": {
        "notice": "Event emitted to request for a query to be run."
      },
      "QueryResultReceived(bytes32,string)": {
        "notice": "Event emitted after the query and its result have been record into the blockchain."
      }
    },
    "kind": "user",
    "methods": {
      "doesOwnBadgeFromGivenDefinition(address,uint256)": {
        "notice": "Function to test if the badge produced using a BadgeDefinition can be mint."
      },
      "dropBadgeToken(uint256,address)": {
        "notice": "Function to drop a BadgeToken as ERC721 tokens."
      },
      "getAllOwnedBadges(address)": {
        "notice": "Function to retreive all badges (and associated IDs of BadgeDefinition) the user currently owns."
      },
      "mintBadgeToken(uint256)": {
        "notice": "Function to mint a BadgeToken as ERC721 tokens."
      },
      "requestBadgeTokenDroping(uint256,address)": {
        "notice": "Function to mint a BadgeToken as ERC721 tokens."
      },
      "requestBadgeTokenMinting(uint256)": {
        "notice": "Function to mint a BadgeToken as ERC721 tokens."
      },
      "tokenURI(uint256)": {
        "notice": "Function to get the URI associated to a token."
      },
      "updateBadgeTokenMinting(bytes32,string)": {
        "notice": "Function to get the result of a query."
      }
    },
    "notice": "Contract to use to mint and to transfer (if applicable based on associated BadgeDefinition) BadgeToken that are ERC721 tokens.",
    "version": 1
  }
}